:10080000007C0020D50A0000D30A0000B10B0000D4
:10081000D30A0000D30A0000D30A0000D30A000064
:10082000D30A0000D30A0000F8330000D30A000006
:10083000D30A0000B8330000D30A0000D30A000036
:1008400010B5054C237833B9044B13B10448AFF30A
:1008500000800123237010BD18010020000000005B
:10086000A835000008B5034B1BB103490348AFF39B
:10087000008008BD000000001C010020A835000019
:100880000E4B0F4A9A60D3F8882042F47002C3F8E6
:1008900088200C4B5A6D42F400525A651A6C22F0B3
:1008A00003021A64084A136823F00103136052F824
:1008B000143C23F0805342F8143C704700ED00E0F4
:1008C0000008000000300E4074300E400179012213
:1008D0000431033001F0A0BD01F004BD00B5A3B0A8
:1008E00002F0B1FCB0F5027F16D1882200216846E3
:1008F00002F03CFDA0238DF8033002238DF8043074
:1009000001238DF8063003238DF8073068460B234A
:100910008DF80830FFF7DAFF88220021684602F0E0
:1009200025FDA0238DF8033004238DF8043040F614
:10093000280368461B689B68CDF80730FFF7C6FFA1
:1009400023B05DF804FB000070B5ADF5267D88226C
:10095000002160A802F00AFD02238DF884315B4B70
:100960000FCB03AD85E80F0020242822002107A823
:100970008DF8834102F0FAFCFF238DF81D3023AA85
:10098000234611A982A801F019FF00248822002122
:100990003EA802F0EBFC4FF47A7601F073FD0028DC
:1009A000FBD001231946009602AA0DF1FB0001F0CD
:1009B0008DFD9DF8FB30202BEFD10123009602AA7C
:1009C00003213FA801F082FD029B032BDED19DF89D
:1009D000FC6076B140F6B833009302AA0123314699
:1009E0000DF1FF0001F072FD029B9E42CED1002866
:1009F000CCD19DF8FD30002BC8D19DF8FE30032BE3
:100A0000C4D8DFE803F04E020D2501238DF88631AE
:100A10008DF887418DF8884160A8FFF757FFB5E74B
:100A20009DF8FF30009540AA07A982A801F000FFB9
:100A300002238DF886310028EAD041F2070398425C
:100A4000E6D003238DF887310B238DF88831E3E757
:100A500003238DF886319DF81E30DBB19DF81F30E1
:100A6000C3B18DF887418DF8884160A8FFF72EFF4C
:100A70009DF81E30002B89D09DF81F30002B85D0AB
:100A80009DF81C309B0781D501F012FC109902F0F3
:100A900051FB7BE703238DF887310B238DF88831D9
:100AA000E3E79DF81E303BB19DF81F3023B940F2BB
:100AB000032002F093FB69E79DF8FF30012B0CBF88
:100AC00040F2022040F20120F3E700BF943300001F
:100AD0007047FEE708B5FFF7D3FE00F0D9F80A4AE1
:100AE0000A4B0B498B4206D30A4B0B4A0021934217
:100AF00006D300F061F852F8040F43F8040BF1E755
:100B000043F8041BF3E700BFA835000000010020F4
:100B10001801002018010020C003002000207047A9
:100B20000020704730B51C4B87B001AA03F11005B7
:100B300018685968144603C40833AB422246F7D1FB
:100B40001B78164A2370D2F8943003F00703022B67
:100B50001ED01369C3F30443102B1BD806A90B4402
:100B60000F4913F8140C0F4B43438B4206D1116904
:100B70000122C1F341618A40B3FBF2F3074AD2F884
:100B80000001C0F304200130B3FBF0F007B030BD2A
:100B9000054BF3E7054BF1E7A433000000400E409E
:100BA00000093D0040420F0000F04902C0EA210167
:100BB0004FF4017002F012BB2F4B13B501225A649F
:100BC0002E4BDC6C01A8240E00F06CFF8E2C1CD880
:100BD0002B49D1F8B00040F00403C1F8B030294BE4
:100BE0004FF050121A601A631A66C3F89020C3F8C7
:100BF000C020C3F8F020C1F8B000214AD36A23F026
:100C00007F0343F02003D36201E08F2CF5D99DF8D8
:100C10000530012B01BF1C4A136843F00403136025
:100C20001A4B00221A60FFF779FF02F0D0FAFFF7A3
:100C300053FEFFF753FE18B14FF4017002F0CEFAE5
:100C4000FFF782FE0446FFF743FF1CB140F2037337
:100C50009C4203D140F2012002F0C0FAA4F20574D4
:100C6000012C94BF40F203204FF4017002F0B6FA59
:100C7000002002B010BD00BF00000E40B081E00FA8
:100C800000400E4000A0004064310E40B40AC6434C
:100C900008B51A4B5B685B050BD4012344F20402D0
:100CA0001268013214D14FF40270BDE8084002F01E
:100CB00087BA02F0B3FAA0F2022080B20728ECD87B
:100CC000012303FA00F010F0C90F18BF0023E5E775
:100CD00093B14FF4804002F0E9F90028E3D0084ACC
:100CE0004FF4804393601846016881F3088881F3CC
:100CF000098840688746FEE708BD00BF00500E40E7
:100D000000ED00E00020704710B50B4CD4F8B03077
:100D100043F02003C4F8B030084B01241C600144A8
:100D20009A605C601A46884201D1D86910BD10F8FB
:100D3000014B9461F7E700BF00400E4000C0014046
:100D4000F8B504461D4616460F4600F0ACFFDDE937
:100D50000612204600F0ADFF0023636284F838706D
:100D60003268C4F839207268C4F83D202B0CB26890
:100D700084F845302B0AC4F8412084F8463084F8C2
:100D80004750F8BD30B585B01D4600F12803CDE9C8
:100D90000112009300F1240200F13803294600F00B
:100DA000A6FF05B030BD0000F0B50F46A3B0164653
:100DB0001D46044620B319B312B30121124800F0B6
:100DC000D7FC4022002102A802F0D0FA294602A84E
:100DD00000F010FB12AD28990AA800F00BFB394671
:100DE000284600F007FB31461AA800F003FB0095E7
:100DF00002AB20222146054800F00CFB23B0F0BDD9
:100E000040F20160FAE700BF00150A0000000F4041
:100E100010B5044601F006FA20460021BDE8104056
:100E200001F02BBA01F033BA014601F032BA1C23AB
:100E300050F8042F0AB9043BFAD1002BCCBF002094
:100E40000120704730B50568046802680368C1E98D
:100E50000054C1E902230568046802680368C1E917
:100E60000454C1E9062330BDD1E9022330B5D1E9EC
:100E700000540560046002600360D1E90454D1E9C4
:100E80000623056004600260036030BD2DE9F04177
:100E900004461D460E46904600211C22181D02F0F5
:100EA00065FA01232B6000F0A1FC4146074604F5DA
:100EB0008070FFF7D9FF314604F5827004F584761F
:100EC000FFF7D2FF29463046FFF7CEFF384600F045
:100ED00091FC0D4F0D4B0E4A0E490F482365636977
:100EE000DB010BD500F082FC294604463046FFF7B3
:100EF000A9FF2046BDE8F04100F07CBC2265616599
:100F0000A065E765EBE700BF393801003939840196
:100F1000D02484FC1C82FED88B1C81A02DE9F04FCC
:100F20008DB0044698460F46154600F05FFC04F568
:100F3000827607F14002114604F5867B81463046F1
:100F40000392FFF791FF29465846FFF78DFF04F5FE
:100F50008873184605F120010293FFF785FF484684
:100F600000F048FC4249216542496165012542493A
:100F7000A165E56500F03AFC04F5847907F1200AE3
:100F8000019039463046FFF76FFF51464846FFF75C
:100F90006BFF039A029B11461846FFF765FF019805
:100FA00000F028FC354B2365354B6365A56500F0E3
:100FB0001DFC04F58073019008F14001184602936E
:100FC000FFF740FF04A94846FFF73CFF019A10468F
:100FD00000F010FC00F00AFC394601905846FFF77B
:100FE00043FF019A104600F005FC264A2265264A76
:100FF00062656FF42673A2F5FE221A44A265E565C8
:1010000000F0F4FB514607463046FFF72DFF384607
:1010100000F0F0FB1D4A22651D4A6265A56500F0DF
:10102000E5FB414607464846FFF70CFF384600F00F
:10103000E1FB00F0DBFB04A907463046FFF714FF95
:10104000384600F0D7FB134A2265134A6265A5654E
:1010500000F0CCFB029B044608F120011846FFF784
:10106000F1FE204600F0C6FB0DB0BDE8F08F00BFDA
:101070008AD11C81D91C83D11C81E11CD01482CB64
:101080001481E11C8CE11C811C84D91CE014D8144F
:101090001482E11C84D31482D11CE0142DE9F041A8
:1010A000044690B00F46244E0521904600F0A5FB63
:1010B00000232360236363630FCE08AD0FC596E85A
:1010C0000F0085E80F0008AA6B4607F14001204693
:1010D000FFF7DCFE00F08AFB04F5867506466946DC
:1010E00004F58270FFF7C0FE39462846FFF7BCFEC4
:1010F00007F1200104F58870FFF7B6FE304600F0D6
:1011000079FB0E4B23650E4B63650E4BA3650123E4
:10111000E36500F06BFB08F12001064604F58070E2
:10112000FFF790FE41462846FFF78CFE304600F060
:1011300061FB10B0BDE8F081383400008AD11C8119
:10114000D91C83D11C81E11C2DE9F04FA5B01D46AF
:101150000446CDE9001205A81C22002102F006F980
:101160004FF0010820220021284605F12007CDF884
:10117000108005F1400A02F0F9F8202200213846DB
:1011800002F0F4F820220021504602F0EFF8052189
:10119000204600F032FB00232360FF2623636363B5
:1011A0007211019806F01F0350F8222008FA03F389
:1011B000134206F1FF3102D10E460029F0D100F0B2
:1011C00015FB04F582733946804618460293FFF7F3
:1011D0004BFE404600F00EFB7A4B7B4A236562656E
:1011E0007A4AA26500F002FB04F5807914A98046D2
:1011F0004846FFF727FE404600F0FCFA00F0F6FAFA
:10120000294680464846FFF72FFE404600F0F2FA96
:101210006F4A704B22654FF486726365A26500F0D9
:10122000E5FA04F5867883460CA94046FFF70AFEE6
:101230001CA94846FFF706FE584600F0DBFA00F00E
:10124000D5FA029B0393514683461846FFF70CFEDE
:10125000584600F0CFFA604B23650123636500F028
:10126000C5FA04F5847B294602905846FFF7FCFD39
:10127000029A104600F0BEFA584A226502F1D9429D
:1012800002F5DE1202F595626265A2F5861201236F
:10129000A2F2BA42A265E36500F0A8FA1CA9029086
:1012A0005846FFF7E1FD0CA94046FFF7DDFD029A25
:1012B000104600F09FFA4A4A22654A4A62654A4A45
:1012C000A26500F093FA2946029004F58870FFF7B2
:1012D000B9FD029A104600F08DFA00F087FA039BE0
:1012E000029039461846FFF7BFFD58465146FFF7B2
:1012F000BBFD14A94046FFF7B7FD029A104600F067
:1013000079FA3A4B23653A4B636500F06FFA514620
:1013100083464846FFF796FD39464046FFF792FD63
:10132000584600F067FA012106F01F0301FA03F3A3
:101330007211019951F82220134217D02B687BB902
:101340002846FFF774FD58B12B6A4BB93846FFF7B2
:101350006EFD28B12B6C1BB95046FFF768FD60B9D4
:101360002B46009A29462046FFF7D8FD16F1FF3696
:10137000BFF425AF25B0BDE8F08F009BAC4603F16C
:10138000200E18685968624603C2083373459446B4
:10139000F7D1BC4603F1200E18685968624603C2B3
:1013A000083373459446F7D10DF1100EBEE80F00D7
:1013B00005F1400CACE80F009EE80F008CE80F0030
:1013C000D4E700BF8AD11C81821CC00C0C0C010028
:1013D000C00C0C83D91C83D88AD11C83DA0C8114ED
:1013E0008CE11CD01484E31482D11C01D81483D165
:1013F0001CC00C0110B520220C46002101F0B6FFE4
:1014000004F12002013812F8013D00F8013FA24228
:10141000F9D110BD2DE9F04FBBB0044690469A4675
:10142000449F8946002900F01B81002B00F01881A1
:10143000002F00F01581002A40F312810023036081
:10144000036343634368884E43F0100343600C21F9
:1014500000F0D3F9636823F4406343F400636360EE
:10146000636823F4407343F4007363600FCE2AADC6
:101470000FC596E80F0085E80F0000F0B7F904F5F6
:10148000847683463946304604F58675FFF7ECFCD2
:101490002AA92846FFF7E8FC584600F0ABF90122DC
:1014A000724B236562656269D20104D440F2026026
:1014B0003BB0BDE8F08F391F082251F8040F002817
:1014C00000F0C680019300F091F907F1200B009025
:1014D00059463046FFF7C8FC2AA92846FFF7C4FC46
:1014E000009A104600F086F9019B2365012363658D
:1014F0006369DB01DAD507F11C02082352F8041FE7
:10150000002900F0A980B8F1200FA8BF4FF02008F3
:101510002022002132A801F029FF08F1FF30CC463B
:1015200020F003033AA940330B441CF8012B00F0D0
:101530000301C9008A4053F8601C0A4343F8602C39
:10154000ACEB0903434500F1FF30E9DB00F04EF955
:1015500032A980463046FFF787FC404600F04AF942
:10156000434B236500F042F904F58078814632A9A7
:101570004046FFF767FC484600F03CF92AAA02AB58
:1015800059462046FFF782FC00F030F904F58879CF
:10159000834602A904F58270FFF766FC32A948462B
:1015A000FFF762FC39462846FFF75EFC584600F01C
:1015B00021F9304B236503F1FA43A3F5006363651A
:1015C00000F014F932A983464846FFF73BFC02A914
:1015D0004046FFF737FC584600F00CF90AAB32AA38
:1015E00025492046FFF7B0FD22AB02AA514620460E
:1015F000FFF7AAFD0AAA11462046FFF74FFD22ABCE
:1016000019460AAA2046FFF789FC22AA114620465D
:10161000FFF744FD00F0EAF80C218046204600F078
:10162000ECF822A93046FFF71FFC39462846FFF7A1
:101630001BFC404600F0DEF8104B2365104B636541
:10164000636913F0807F40F2046018BF00202FE729
:10165000013A7FF432AF29E7013B7FF44FAF25E732
:1016600040F2016024E700BF583400003035DA1042
:1016700030D00C0130E11C84783400003035DA14AD
:10168000393801001FB5124B1A6842F480121A60F3
:10169000D3F8C02042F00102C3F8C020FFF742FA9D
:1016A0004FF47A23B0FBF3F00A4B0D2218600021AF
:1016B000684601F05BFE01238DF8003069460A237D
:1016C00005488DF8023000F007FA05B05DF804FB1C
:1016D00000400E4038010020008001400C4A0D4BB4
:1016E00010B5546A1B68A4B213FB00400A4B80B2C9
:1016F0001880A042094B2CBF002401241C70134603
:1017000011B15A6A8242FCD101225A619A6110BD1C
:101710000080014038010020340100203601002003
:101720000A4B1A780A4B22B1D86810F0010003D195
:101730007047DA68D20707D4586A064B1B8898426C
:1017400034BF00200120704701207047360100207F
:101750000080014034010020044BD3F84421D2071B
:1017600003D4D3F840211042FBD1704700400E4013
:10177000C0F30322013A38B50546092A13D8DFE839
:1017800002F023131212051619121C20104C00200F
:10179000C5F3043508B1FFF7DFFF04F1047405EB6E
:1017A000C404A400216038BD00200A4CF0E70120E9
:1017B000094CEDE71020094CEAE74FF48030084C63
:1017C000E6E70020074CE3E70020074CE0E700BF16
:1017D000B0400E40C0400E40E0400E40E8400E4099
:1017E000F0400E4050410E4000400E40EFF310809C
:1017F00072B6704700B962B670470E2910B54368DB
:101800000DD801228A4047F2E004224223F01F0350
:1018100006D140F61F74224201D01943416010BD29
:1018200041F01001F9E70000F0B54AB130261E4C36
:10183000012546438D4034440BB304F1C064256058
:101840003024444304F18044072904F5204419D886
:1018500065688E000F27B74025EA070502FA06F6ED
:101860003543656052B9012202FA01F1302250433A
:101870000D4A0244A3B102F1C0621160F0BD04F14F
:101880008064DCE701F18045083DA668AD000F27C4
:10189000AF4026EA070602FA05F53543A560E1E701
:1018A00002F18062E9E700BF0CA00040094A0A4B40
:1018B000D969C90705D512B96FF002007047013A1E
:1018C000F6E7002AF8D001221861DA60D86940F3FF
:1018D000800070478096980000000E4070B509B9EE
:1018E000002070BDC2B9244B082550F822409C61ED
:1018F000224CDD600132DE69F60705D514B96FF0C0
:101900000200EEE7013CF6E7002CF8D0DC69A60700
:1019100020D49142E9D1E3E7EFF3108572B6164B7C
:1019200000221026DC69240717D550F822409C615C
:1019300001329142DE60F5D105B962B60E4A0F4B15
:101940001146D069C40711D573B96FF00200CB6995
:101950009B07C6D56FF00100C3E7DC6904F01904EA
:10196000102C08BFDC60DDE7013BEAE7002B0CBF71
:101970006FF002000020EAE700000E408096980019
:101980002DE9F84F9946234B0F4641F671311E6CF5
:101990001964996841F001018046B6B299604FEA36
:1019A000920ABB46002555450FD30020D8F80020E9
:1019B0003B689A420FD04046FFF778FF58B94A4635
:1019C00001213846FFF78AFF05E008EB8504204631
:1019D000FFF76CFF48B10F4B9A6822F001029A6042
:1019E0000EB100221A64BDE8F88FC4F30A04C4F5EE
:1019F0000064A408AAEB05039C4228BF1C464A4683
:101A000021465846FFF76AFF0028CFD125440BEB4B
:101A1000840BC8E700000E401E4B41F671311A6C72
:101A200010B51964996841F00101996001211861AC
:101A3000D960D9694C0792B209D5996821F00101A2
:101A400099600AB100221A644FF0FF301FE00221B2
:101A5000114CD9601946D869C00700D56CB9C8695E
:101A60008B6810F0020023F001038B6007D00AB1ED
:101A700000230B646FF0010009E0013CEBE724B99F
:101A800002B10C646FF0020001E00AB1086410BDFD
:101A90001046FCE700000E40809698000023FFF7F8
:101AA0006FBF00000B4A536911699B0003F03C03B0
:101AB000C1F381110B438370136903F03F0343703B
:101AC0009369D26903F0F003C2F303121343037066
:101AD000704700BFD0FF0FE02DE9F04F0C780CB934
:101AE00002234360002343624B78CA7891F802B026
:101AF0008D7A91F808A091F8069091F80780002B54
:101B00004B7A4FEA024214BF4FF0400E4FF0000EE6
:101B100042EA0B62002B14BF8023002342EA0A0230
:101B2000002DCD7A42EA892214BF4FF0200C4FF0ED
:101B3000000C42EA0822002D0D7B42EA0E0214BF7F
:101B4000102700271343002D0D79497943EA0C0330
:101B500014BF082600263B43002D14BF4FF4005548
:101B600000253343002914BF4FF0805100212B433F
:101B70000B4303600CB101234360BDE8F08F30B527
:101B80000568046802680368880785B011D0CDE94C
:101B90000054CDE902236C460B4604AD224603CA2D
:101BA000AA4218605960144603F10803F6D105B043
:101BB00030BDC1E90054C1E90223F8E77FB58B07C6
:101BC000024615D00B466D4601F11006186859689B
:101BD0002C4603C40833B3422546F7D1009B13605B
:101BE000019B1360029B1360039B136004B070BDE4
:101BF000D1E90054D1E90203156014601060F4E7E4
:101C000000F10473102A30B54FEA43131AD10122B0
:101C10001A60D1E90054D1E90223C0F81051C0F88C
:101C20001041C0F81021C0F81031D1E90454D1E9B5
:101C30000623C0F81051C0F81041C0F81021C0F8B8
:101C4000103130BD00221A60D1E90054D1E90223DD
:101C50004562446242624362F3E7F0B58C0789B0A3
:101C600006460B4615460FD0082A6C4610D101F1E6
:101C7000100718685968224603C20833BB4214464D
:101C8000F7D12A4669463046FFF7BAFF09B0F0BDE2
:101C900001F1200718685968224603C20833BB4285
:101CA0001446F7D1EDE718B12422002101F05EBB04
:101CB000704770B50E461546044690B189B124228E
:101CC000002101F053FB802D02D0B5F5807F0BD1B0
:101CD0002046EA0840F8045B314601F03CFB002056
:101CE00070BD6FF02100FBE76FF02200F8E72DE9EF
:101CF000F04F814685B088469B461646F2B117687C
:101D0000B9F1000F00F0B5800F9B002B00F0B180FF
:101D1000109B002B00F0AD80BBF1000F00F0A980FC
:101D20000E9B002B00F0A580D9F80030802B03D04B
:101D3000B3F5807F40F0A08000240DE01746DFE778
:101D4000A7B10F9B0E9A1B5DD25D5340109A0137CD
:101D5000135507F00F0701344445F1D3002E00F06E
:101D60008E803760002005B0BDE8F08F00F08AF863
:101D70004FF44043476003600546FFF737FDD9F84D
:101D80000030802B824614BF1022082209F1040182
:101D90002846FFF762FF05F1840318465946009371
:101DA000FFF70CFF5046A8EB040A2AF00F0AFFF7D2
:101DB00021FDA244032354451AD10F9B03EB040ACF
:101DC000109B1C440F9B434401930323019A9245AB
:101DD0002DD1FFF70BFD594604460098FFF7CFFEC3
:101DE0002046FFF707FD284600F056F84446B3E7C3
:101DF0004822AA600522AA602A699107FCD4AB6038
:101E00000293FFF7F3FC0F9B0190191905F1A00055
:101E1000FFF7D4FE109B05F180001919FFF7AFFE04
:101E2000019A1046FFF7E6FC1034029BC3E7AFB9F6
:101E30004822AA600522AA602A699207FCD4AB60F6
:101E40000393FFF7D3FC0E99029005F18000FFF792
:101E500096FE029A1046FFF7CDFC039B0E991AF8E6
:101E6000012BC95D01374A4004F8012B07F00F0729
:101E7000ACE76FF0210076E76FF0220073E73046A1
:101E800071E70000024B034801221A60704700BF4F
:101E90000416C84300000F40054B984206D103F1D9
:101EA0006E7303F58B33043300221A60704700BF52
:101EB00000000F402DE9F04F99B007460E469046BE
:101EC0001D46FFF7DFFF04462FB1022F00F2E58029
:101ED0000423036000E0076000236360E36462683A
:101EE00022F4406262602363636356F8232012BACF
:101EF0004DF823200133082BF7D1FFF777FC009B27
:101F0000C4F80431019BC4F80431029BC4F80431C5
:101F1000039BC4F80431049BC4F80431059BC4F846
:101F20000431069BC4F80431079BC4F80431FFF761
:101F300061FCDFF874A15A4B2365002608F0030901
:101F4000229B9E4239D1AB0700F08A80FFF74EFCFE
:101F5000D4F80061D4F80011D4F80021D4F800318D
:101F6000CDE90061CDE90223D4F80061D4F8001175
:101F7000D4F80021D4F80031CDE90461CDE906237D
:101F80002E46FFF737FC08AF6B461A4603CABA4223
:101F900030607160134606F10806F6D12046FFF75F
:101FA0007BFF2B1F1C3553F8042F12BAAB421A606B
:101FB000F9D1002019B0BDE8F08F08EB861BB9F10C
:101FC000000F0FD008AA0BF1400CDBF80000DBF883
:101FD0000410134603C30BF1080BE3451A46F4D172
:101FE0000DF1200BFFF702FCDBE90131DBF80C20DF
:101FF000DBF80070C4F8A471C4F8A431C4F8A411CB
:10200000C4F8A421DBE90531DBF81C20DBF81070F3
:10201000C4F8A471C4F8A431C4F8A411C4F8A4216C
:10202000DBE90931DBF82C20DBF82070C4F8A4715F
:10203000C4F8A431C4F8A411C4F8A421DBE90CC18C
:10204000DBE90E23C4F8A4C1C4F8A411C4F8A42188
:10205000C4F8A431FFF7CEFB0136C4F850A06FE7F7
:10206000FFF7C4FBD4F80061D4F80011D4F80021C4
:10207000D4F80031C5E90061C5E90223D4F8006154
:10208000D4F80011D4F80021D4F80031C5E9046176
:10209000C5E90623FFF7AEFB80E702488AE700BFE9
:1020A000888AC80180AFFFFF070D81012DE9F34742
:1020B0000228144680460E461F46DDE90A924ED895
:1020C0001CB9002002B0BDE8F08713683F2B42D84E
:1020D000516809B1002F3ED1B8F1010F3DD0224D1A
:1020E0002249B8F1020F18BF0D4603F03F00E31874
:1020F000136022BF53680133536090B3C0F1400AAC
:10210000544522D331465246484401F024F9012374
:1021100000934A463B4629464046A4EB0A04FFF793
:10212000C9FE3F2C56440DD93D46A30900933246C3
:102130003B4629464046FFF7BDFE24F03F031E44C0
:1021400004F03F04002CBCD0002022463146484415
:1021500001F001F9B5E73D46C7E7054DC5E705487C
:10216000B0E73F2CF1D9E0E7F8340000B8340000C4
:10217000D834000080AFFFFF2DE9F041012886B080
:1021800004460E4690461D4604D045D3022841D051
:1021900022483CE01C272A68D3008DF80F305309F1
:1021A0008DF80E30530B8DF80D30530D8DF80C302B
:1021B0006B68D90001EB52718DF80B1002F03F02F1
:1021C0005909372A8DF80A104FEA53314FEA535311
:1021D00094BFC2F13802C2F178028DF809108DF86F
:1021E00008300F493346CDE900852046FFF75EFFF2
:1021F00008220DEB02013346CDE900852046FFF7AA
:1022000055FF3A4631460C9801F0A5F8002006B07B
:10221000BDE8F0812027BEE71427BCE780AFFFFFB1
:102220001835000018B16C22002101F09FB87047EA
:1022300007B5034690F86800002803F120000190DC
:1022400003F12800009014BF01200220FFF72EFFA9
:1022500003B05DF804FB07B590F868300091002BDF
:1022600000F1280200F12003014614BF01200220E2
:10227000FFF782FF03B05DF804FB00239942D4BF4F
:1022800000210121C0E9083380F868107047FFF78A
:10229000CFBFFFF7E0BF002070470020704700204D
:1022A00070470020704740F628031B681869704784
:1022B0002823044A1B68196891420CBF1869002042
:1022C000704700BFAD1007B001207047004870474D
:1022D0004A43E00F004870476A43E00F00487047E8
:1022E0008642E00F38B501213448354CFFF740FAFB
:1022F00001213448FFF73CFA01213348FFF738FA4F
:1023000001213248FFF734FA40F6AA630025E36062
:102310002F4A256041F2050365666360A56065612B
:10232000E564A2646567A567E56763602368236069
:10233000FEF7F8FB00F5E1404FF4E1134001B0FB7C
:10234000F3F0244B203803EAC0006061012304222B
:102350000A210220FFF768FA01231A460B21022006
:10236000FFF762FA40F60F73A36703220523626743
:10237000E360194B4FF0E06119604FF440211D629A
:10238000DD625D63DD66C3F880101449C3F88850D0
:10239000C3F88450C3F898101149C3F8B01011491C
:1023A000C3F8B850C3F8B4500A600122DA6303F1ED
:1023B000C063083302221A6038BD00BF40410500E7
:1023C0000000014000250A0000450A000022040028
:1023D000F9FF0100F8FF7F0000200E405835000093
:1023E00001000C0028200E44084B986A10F00200EF
:1023F00005D0074A022313609360012070471B6ACF
:102400009B07FBD4034B02221A60F6E700200E4024
:1024100020200E4428200E447F2938B50546144656
:1024200024D8FFF7E1FFA8B941F2062038BDE85CE7
:10243000985401338B42FAD10E490888013B63F36B
:102440000E100D4B08800222C3F8C810DA6324B9BD
:102450000020EBE70023094AECE7FFF7C5FF00285F
:10246000FBD0074A13699B06FCD5F1E741F2031044
:10247000DCE700BF0001002000200E4040030020E8
:10248000000001400E4BD3F8940040F20113984233
:102490000FD040F2022398420DD00A4BC01A0A4BCB
:1024A0001B6883420AD02ABFC3F50073C01AC01844
:1024B00070470020F3E74FF48070F0E7002070478A
:1024C00000200E403C0100203C0300202DE9F84391
:1024D000089F04460D461646FBB9FFF7D3FF214976
:1024E000DFF888E00B68204FA84228BF2846224624
:1024F00004EB000C4FF0010800244FF00209624584
:102500001DD104B10B6006B1306041F20423A84232
:1025100034BF18460020BDE8F8832FB1FFF7B2F8AA
:1025200000213846FFF7DAF8FFF7ACFFA842D4D213
:10253000002FF9D0FFF7F4F80028F5D0CDE71EF80A
:10254000034002F8014B0133B3F5007F04D1C7F813
:10255000009000230124D2E7B3F5807F08BFC7F8BD
:102560000080F7E73C03002008200E463C010020D5
:1025700070B5D1E90152AA4205D290F840302B44FF
:102580009B1A402B10D9002012E00A6890F84040B6
:10259000D65C90F84120224402F03F02013301341E
:1025A00086548B6080F840408B689D42EDD80120B6
:1025B00070BD2DE9F8431746D1E90125521B90F86B
:1025C00040509DF820909DF824802A449342044670
:1025D0000E4657D9FFF7CCFF00285DD1122384F8AF
:1025E000463041F20200BDE8F88394F84120A25C35
:1025F0007A5594F84120013202F03F0284F84120DC
:1026000094F84020013A84F84020013594F84020A5
:1026100012B1AB42E9D11D46D6E901128A4201D27C
:10262000AB4231D8AB42D9D1D4F8882029463846BC
:10263000FEF76AFBC4F88800B9F1000F04D02A46FF
:102640003946E06CFEF7EEFBB8F1000F08D094F8C5
:1026500043302BB12B463A463946A06CFEF792FB2D
:1026600094F8433043B1E36DA26D2B449342E3658C
:1026700024BF002384F84330636D1D44656541F237
:102680000300B0E70025C1E731688A5C7A55B2687B
:102690000132B2600135BFE70020A4E77FB5002317
:1026A000CDE90033082315460DEB03020446FFF77E
:1026B00080FF41F203039842064626D194F8433046
:1026C00063B108220DEB0201E06CFEF7ABFB0823BF
:1026D0000DEB03021146A06CFEF754FB039A6A60EF
:1026E00094F84320029B2B605AB9094A934208D0C0
:1026F000084A934205D008220DEB0201E06CFEF778
:1027000091FB6B68236500236365304604B070BDA0
:10271000F70A0AF7FC0404FC2DE9F843044658685C
:102720000D4616461F46002843D08B0743D1FFF7BE
:10273000BAFD216E00F1040C06EB0109CC451DD851
:1027400000F11C02914219D28C45634638BF0B46FA
:10275000591AA3EB0C00914594BFC3EB0909C3EBD5
:10276000020905EB010868304A464146204400F062
:10277000F2FD4A46FF21404600F0F8FDFFF798FDC4
:10278000226E031D93420AD3B1180830814206D34A
:102790009B1AEA58C4F880204FF0FF32EA50D7E97C
:1027A00000383246206E2946C047236E1E442666F6
:1027B0000020BDE8F88341F20200FAE7F8B50446CC
:1027C0004FF0FF36154603F02003002280F8462024
:1027D000A0F8402080F8432080F8452080F844206D
:1027E000C0E918220F4680F84230C0F888601822ED
:1027F000FF21683000F0BAFDC4F88060C4F884603E
:10280000C4E91275FFF74DFD18B117B941F20B007D
:10281000F8BDFFF744FD30B1002DF7D0E06CFEF7B6
:10282000F7FA0020F4E7002DF8D12846F0E7000081
:102830002DE9F04F9BB0CDE907230393249EDFF8E9
:10284000F8B300230446894609939846099A039BE6
:102850009A4257D294F84630122BF8D8DFE813F09A
:102860005B00700054009A00B4013B003200D101BB
:102870003B00CB013B00CB01B0024E031300190318
:102880001D0345024E030027636D0F2B41D8012520
:102890001023019700950AAA07A92046FFF789FE91
:1028A00041F2030398427AD1D4F848A0FFF716FD0D
:1028B0008023CDE900030BAA2B4602215046FEF7E8
:1028C0003FFAE1E70125D4E914329A42C0F01B81B6
:1028D00084F84650BAE70DF1280AD4E91452AA4206
:1028E000099916D2089BAD1A94F840205B1A032D63
:1028F000134440F2A381032B00F2C78107A92046AD
:10290000FFF736FE00204AE00025636D072B40F2FA
:10291000C380012311E005AA07A92046FFF7BEFEE8
:1029200041F2030398423AD1069B23650023636575
:10293000059AB64B9A422DD1022384F8463085E79A
:1029400005AA07A92046FFF7A9FE41F20303984212
:1029500025D194F84420059B22B1AD4A934219D168
:102960000C23EAE794F84220D1074FD594F843208E
:10297000002A40F0C682A74A934241D017D8A64AFF
:10298000934207D00ED8A14A934203D002F1B64237
:10299000934215D1122384F8463041F201001BB056
:1029A000BDE8F08F9D4A9342F4D09D4AF0E79D4ADE
:1029B00093421BD00CD85B4543D09B4A934217D01F
:1029C000122384F8463005A8FFF765FCD8B1E4E788
:1029D000964A9342DED0964A9342DBD08C4A934289
:1029E000EED1FFF75CFC0028BAD0D3E70E23A4E7B2
:1029F0000F2384F84630236DA3650023E36525E7A4
:102A0000122384F8463041F20800C8E75B4514D031
:102A100000F27B82814A934207D0814A934206D0DA
:102A20007D4A93420FD1062387E7042385E70723D6
:102A300083E7092381E70B237FE794F84330002BDA
:102A4000A8D1102379E705A8FFF725FCD0B1112301
:102A5000059884F84630C4F88C00FFF71EFC94F803
:102A600042309A0680467FF5F1AE00283FF4EEAE84
:102A70004368002B3FF4EAAE2046984700283FF415
:102A8000E5AE8AE7122384F8463094F84330002BF1
:102A9000B9D041F2040082E7012300930195082395
:102AA0000AAA07A92046FFF784FD41F203039842D2
:102AB0007FF475AF0A9B03F07F43B3F1407F05D0ED
:102AC000122384F8463041F2090068E70B9B049317
:102AD000DB070ED594F8423043F0010384F842300E
:102AE000FFF7DDFB00283FF410AF049BDF0504D5A2
:102AF0000BE7FFF7D6FB0028F2D0122384F846300C
:102B000041F20A004BE7CDE900550AAA07A9204681
:102B1000FFF74FFD41F2030398427FF440AF09F104
:102B2000080C0AAF63460DF1400E3A4603CA7245DF
:102B300018605960174603F10803F6D11068186051
:102B400099F8003043F0010389F800306046FFF740
:102B5000BBFB00287FF4B7AE122384F8463041F265
:102B60000C001CE70123CDE900330AAA082307A9BA
:102B70002046FFF71EFD41F2030398427FF40FAF9A
:102B800099F800302B4843F00203282289F80030DE
:102B900012680A9BC9F80430236D1168083BC9F814
:102BA000243081420B9B049303D1D2689A427FF474
:102BB000F1AE052384F8463094F8453043F0010324
:102BC00084F8453000236366636D072BCAD93DE660
:102BD0000423CDE900550AAA07A92046FFF7E9FC1E
:102BE00041F2030398427FF4DAAE226D0A9B04930C
:102BF000042A01D923660125636D032BE8D90A2332
:102C00009BE600236366082397E600BFEB17A60345
:102C1000FC0404FCF70909F7F40A0AF4F50909F5BC
:102C2000F60808F6FA0606FAF90707F9FD0303FDA8
:102C3000FE0101FEAD1007B0F70A0AF79D423FF60C
:102C40005DAE9D4228BF1D46032D88BF25F00305BC
:102C50000123CDE9003352462B4607A92046FFF752
:102C6000A8FC41F2030398427FF499AE94F84630F1
:102C7000082B13D1B7688FB13368606E2A4651466E
:102C8000B847636E1D44656627E6402D28BF402582
:102C9000D7E74FF0FF320AF805200135032DF8D9A8
:102CA0000A2B06D133462A4651462046FFF734FD0B
:102CB00013E6052B7FF411AE99F8013098077FF5E4
:102CC0000CAEF368002B3FF408AE626E042A0AD8FB
:102CD0005319062B07D90BAB9B1A1A68C4F884202A
:102CE0004FF0FF321A60F768C6E794F84230990651
:102CF00007D5D4F88C00FFF7D0FA804600283FF4BF
:102D00004CAE01273FE0002B58D0B8F1000F55D052
:102D1000D8F81030002B51D020469847DDE90853F1
:102D2000ED1A94F840302B4498423FF6E7ADD4E9D1
:102D30001452AD1A402D28BF40259D4228BF1D4684
:102D40002B46CDE900770AAA07A92046FFF731FCF8
:102D500041F2030398427FF422AE94F842309A067F
:102D600011D5B8F1000F3FF418AED8F808A0BAF1A9
:102D7000000F3FF412AE33462A460AA92046D04738
:102D800000287FF40CAED4E9142194F8423091422B
:102D900003F02003B7D3002B3FF4BBADB8F1000F15
:102DA0003FF4B7ADD8F80C30002B3FF4B2AD31464C
:102DB0002046984700283FF4ACADF0E50120ADE790
:102DC0000023CDE900330AAA042307A92046FFF710
:102DD000F0FB41F2030398427FF4E1ADD4F8882080
:102DE000554B9A4205D0122384F8463041F2050033
:102DF000D5E5FFF754FA10B9012389F8033099F8A3
:102E00000330002B3ED094F845309B0707D0F5687F
:102E10002DB10422336804F184011046A847236EC3
:102E200083B3736873B31AAF4FF0FF3347F8583D5D
:102E300004F1800804224146384600F07DFA40B192
:102E4000FFF736FA28B10422D6E90035414610448E
:102E5000A84704F1680504222946384600F06CFAB8
:102E600080B17768FFF71FFA3368142204F16C0110
:102E70000830B8477768FFF716FA04223368294606
:102E80001044B847012389F802300D2384F84630F6
:102E900038E5012384F843304FE594F84450002D81
:102EA0007FF437AD4023CDE900550AAA07A9204693
:102EB000FFF77FFB41F2030398427FF470ADE06CB3
:102EC000FDF7B2FFE76CFFF701FA8246FFF702FA5F
:102ED0005346009012AA0AA93846FDF765FF38B19B
:102EE000122389F8035041F2060084F8463056E573
:102EF000012389F8033084F844300AE541F20700E1
:102F00004DE55B457FF484AD44E50C4A93423FF4C4
:102F100092AD0B4A93423FF48CAD0A4A93427FF440
:102F200092ADFFF7BCF900287FF434AD94F843303C
:102F3000002B3FF415AD2DE5E320BBDEFD0303FDC3
:102F4000FE0101FEFC0404FCF0B50F4B85B06C469D
:102F5000024603F11007264618685968254603C53E
:102F60000833BB422C46F7D104AB501E13F8011DA9
:102F700010F8012F914204D1B342F7D1012005B0DE
:102F8000F0BD0020FBE700BF98350000C0F30A0346
:102F90002DE9F04105460F4616460BB900F089F9B8
:102FA00005F5006424F4FF6424F0070405EB06082B
:102FB000A04506D8324639462846BDE8F04100F023
:102FC00083B9204600F075F904F50064F0E730B5E8
:102FD000446B9FB005462046FFF7B6FF18B1636902
:102FE000012B28D1A46940F628031B681B69A34262
:102FF00021D8A5421FD8B4F5802F1CD803A8FDF70F
:1030000007FF621B294603A8FDF70CFF03A8FDF785
:103010000BFFFFF75BF90546FFF75CF92B460090C5
:1030200004F12002214603A8FDF7BEFEB0FA80F0AD
:1030300040091FB030BD0020FBE770B440F6280403
:10304000034624682669864206D8646913449C4274
:1030500002D370BCFFF79ABF70BC7047F8B5282345
:1030600015461B681A68104B9A4206460F4619D13E
:10307000FFF71EF984196319B3F5802F12D856B9DA
:10308000FFF716F940F628031B685A69824202D9F5
:10309000186900F00EF92A4639462046BDE8F84086
:1030A000FFF774BFF8BD00BFAD1007B038B50368B7
:1030B00003F16043B3F5F84F044635D840F62803D2
:1030C00042681B681B6993422ED8B2F5802F2BD81B
:1030D000456B4033AB4202D8B5F5802F05D9FDF7DB
:1030E00011FE80F00100C0B238BDFDF70BFE20B12B
:1030F0002046BDE83840FFF76ABF2846FFF724FFA7
:10310000A0B16B69002BEFD0022BF1D1AB69C4F1F8
:10311000040119444FF0FF322046FDF7F5FD044B42
:10312000C31A58425841DFE70020DDE70120DBE702
:10313000E320BBDE08B54FF0FF32FDF7E5FD044BA1
:10314000984203D140F2092000F048F8002008BD61
:10315000E320BBDEB1F5BE7F10B5044610D34FF4BB
:10316000BE72002100F002F90023637004F5807242
:1031700004F1B80104F12800BDE81040FFF71EBBC0
:1031800040F2052010BD13B50446009101462830D9
:10319000FFF74EFBC4F8780118B141F207039842DB
:1031A00009D1A3784BB1E27840F2032040F2022328
:1031B000002A08BF184602B010BD40F20120FAE70D
:1031C0004FF000534FF20F0218805A8070474FF0B3
:1031D00000534CF23C325A80704700004FF00053CD
:1031E0004FF20F025A800A4A1880136823F4E063F2
:1031F00043F480631360BFF34F8F0649064BCA68E0
:1032000002F4E0621343CB60BFF34F8F00BFFDE7D2
:1032100000500E4000ED00E00400FA054FF00053AE
:103220004FF20F015A888A4201D1188870473AB983
:103230001B88012B40F2022018BF4FF4007070472A
:103240004FF4007070474FF000531888704700002B
:10325000044B41F671321A649A6822F001029A60B6
:10326000704700BF00000E40034B9A6822F0010235
:103270009A6000221A64704700000E4007B50346AA
:103280009B0753BF6FEA01414FF6FF7343EA0141C9
:103290006FEA1141019120F00300FFF7D9FF0422EA
:1032A0000DEB0201FEF7FAFBFFF7DEFF03B05DF85E
:1032B00004FB08B5FFF7CCFFFEF7AEFBFFF7D4FF2A
:1032C000B0FA80F0400908BDF8B540EA02031446A0
:1032D000DA0705460E4601D50020F8BD0CB90120DD
:1032E000FBE7830725D50988FFF7C8FF0028F3D13E
:1032F000023C032C05F1020506F102060FD924F069
:103300000307FFF7A5FF3A4631462846FEF7C6FBFE
:10331000FFF7AAFF0028DFD13E443D44E41B002C08
:10332000DDD031882846FFF7A9FFB0FA80F04009C8
:10333000D3E7032CE3D8F4E730B50024A24201D14F
:10334000002007E0035D01340D1915F8015CAB4264
:10335000F4D0581B30BD10B5431E0A44914200D131
:1033600010BD11F8014B03F8014FF7E70244034683
:10337000934200D1704703F8011BF9E7F8B500BF8D
:10338000F8BC08BC9E467047F8B500BFF8BC08BC46
:103390009E467047000000003B3000000000000027
:1033A0005D3000000400000700000D1013001A201B
:1033B000263038404800000013B779FAC925DDB738
:1033C000ADF3CFE0F1B614B8010100000000000039
:1033D000C42D0000400000000400080100000000AF
:1033E00000000000000000000000000000000000DD
:1033F000000000000000000007B0CD5E01000000EA
:1034000004000801C82D0000004000000000040076
:10341000F00010001D0B0000210B0000AD3000007B
:10342000553100008731000000000000200000003E
:1034300000010000050C0000FFFFFFFFFFFFFFFF82
:10344000FFFFFFFF00000000000000000000000080
:1034500001000000FFFFFFFF512563FCC2CAB9F362
:10346000849E17A7ADFAE6BCFFFFFFFFFFFFFFFF3B
:1034700000000000FFFFFFFF96C298D84539A1F475
:10348000A033EB2D817D0377F240A463E5E6BCF821
:1034900047422CE1F2D1176BF551BF376840B6CBEC
:1034A000CE5E316B5733CE2B169E0F7C4AEBE78EE8
:1034B0009B7F1AFEE242E34F67452301EFCDAB89C4
:1034C00098BADCFE10325476C3D2E1F0000000005E
:1034D0000000000000000000C1059ED8367CD50722
:1034E0003070DD17F70E5939FFC00B3168581511D0
:1034F00064F98FA7BEFA4FA46A09E667BB67AE8579
:103500003C6EF372A54FF53A510E527F9B05688CC5
:103510001F83D9AB5BE0CD198000000000000000E4
:10352000000000000000000000000000000000009B
:10353000000000000000000000000000000000008B
:10354000000000000000000000000000000000007B
:103550000000000000000000F00F10031C000140FC
:103560003C010020130000000900000000010000E1
:103570000202000013000000F00F10031C000140C5
:103580003C020020130000000900000000020000BF
:1035900001010000D3FFFFFFB814B6F1E0CFF3AD97
:0C35A000B7DD25C9FA79B7130000000060
:1035AC00F07F103040030020340001400000000088
:0835BC00650800004108000051
:0400000300000AD51A
:00000001FF
