S01E0000435053496E634465766963654170706C69636174696F6E2E73333712
S214004000007C0020217300001D7300001D7300005B
S2140040101D7300001D7300001D7300001D7300005B
S2140040201D7300001D7300001D7300001D7300004B
S2140040301D7300001D7300001D7300001D7300003B
S2140040401D730000E1B400001D7300005DB00000A9
S2140040504DB50000EDB4000005B50000E5B4000065
S2140040601D7300001D7300001D7300001D7300000B
S2140040701D7300001D7300001D7300001D730000FB
S2140040801D7300001D7300001D7300001D730000EB
S2140040901D7300001D7300001D7300001D730000DB
S2140040A01D7300001D7300001D73000051B5000055
S2140040B0E9B400001D73000091B500001D730000F8
S2140040C0CD7900001D73000010B5054C237833B978
S2140040D0044B13B10448AFF300800123237010BDD6
S2140040E0B0000020000000000CD7000008B5034B0D
S2140040F01BB103490348AFF3008008BD0000000071
S214004100B40000200CD70000154B002B08BF134B43
S2140041109D46A3F5803A00218B460F461348144A65
S214004120121A08F01EF80F4B002B00D098470E4BC3
S214004130002B00D098470020002104000D000D48F9
S214004140002802D00C48AFF3008007F0DBFF200009
S214004150290002F00DFA07F0C1FF00BF00000800BA
S214004160007C00200000000000000000B0000020DE
S214004170601C0020000000000000000037B5044668
S214004180684680E8060003C8251D85E805002373F9
S214004190069B2361BDF81C30A38200232360084BD6
S2140041A01A6812B91C6004E00A4611680029FBD19F
S2140041B014609888013080B2988003B030BD00BF8C
S2140041C0C806002007B503790193054A03680093E3
S2140041D006CA02230830FFF7D1FF03B05DF804FBE0
S2140041E0C0C300000A4B40F2011210B51A604FF02F
S2140041F0FF329A6001225A6008441A46814202D170
S214004200D869C04310BD11F8014B9461F6E700BFB2
S21400421000C0014070B540F62804E0B02368A3F55E
S2140042200062B2F5605F05460E4615D21B6BA3F51D
S2140042300062B2F5605F0FD25B6A4FF4C0726946E7
S2140042400020984730B923681B6B3246DB6A294644
S2140042506846984760B070BD4FF40170FAE70000FA
S21400426040F628020B461268A2F50061B1F5605FC1
S21400427010B40DD2126BA2F50061B1F5605F07D2E3
S2140042801469064A0146A44600205DF8044B6047C0
S2140042904FF481705DF8044B704700BF180700208C
S2140042A070B540F62805E0B02B68A3F50062B2F5BD
S2140042B0605F04D34FF40174204660B070BD1B6B82
S2140042C0002BF7D05B6A4FF4C0726946002098470F
S2140042D004460028F0D140F201262B68A3F50062C0
S2140042E0B2F5605FE6D21B6BA3F50062B2F5605FC5
S2140042F0E0D29B6A002168469847B042EDD040F273
S2140043000323984218BF0446D6E70000304B1A6FC6
S214004310D96CC90702F0070242D5012A40D91328F2
S21400432051D9143813288CBF102308232849013B81
S214004330CA6C180322F47F4240EA03231343CB647B
S214004340244BCA6C1B88C2F303222833013202EBCB
S214004350820003EB5303B3FBF0F3C86C013B072B5F
S21400436020F0EE6028BF072340F4801040EA036385
S214004370CB64194BB3F90030002B10DB2833500800
S21400438000EB420203EB5303B3FBF2F30A6D072B79
S21400439028BF072322F0700242EA03130B6570471A
S2140043A0DB6CD90706D4012A04D809280BD90A38A9
S2140043B00928B8E7064BDB6C13F00103B6D0012AD8
S2140043C003D82728AFE70423B0E70023AEE700BFF3
S2140043D000300E40E6060020E80600200A490B4B97
S2140043E088425A680BD90A4988420AD902F04071B5
S2140043F05A6822F0407242EA01625A607047002111
S214004400F6E70121F4E700BF40787D0100000E408A
S214004410005A62020C4B984210D90C4B984210D9A5
S214004420022201230A490B600A49D1F8003123F021
S214004430807343EA0263C1F80031704700221346D6
S214004440F0E70122FBE700BF0048E8010090D00338
S2140044504000C84300400E40094B30B5196C5C6CF8
S2140044600022234642EA0104220C82701A0A210A1C
S214004470C2701A0C1B0E047041700271437130BD7D
S214004480B081E00F214BD3F8F82102401CD170B464
S214004490D3F8FC51D3F8006203F5FC74641BA41037
S2140044A0022C12D0032C29D0012C1AD0184A52689C
S2140044B02A6005F10C026860C3F8FC21A960336825
S2140044C00C33336070BC70477047114A1C1D52682D
S2140044D02A60686004221960C3F8FC41326070BC30
S2140044E070470B4C1A4664682C6042F8080B08208C
S2140044F05960C3F8FC21306070BC7047044C646897
S214004500A960C5E90040C3F8FC31E7E79C15002028
S214004510001000E0837DDB0701D5808A7047D0E974
S21400452001239B1A44BF828A9B1898B270470000EA
S214004530044B5A6D22B95865A3F8581001207047ED
S2140045400020704768060020D0B50C4CE38C0A208B
S214004550584307F027FB0646A08C0F4607F022FBC1
S2140045600022074B07F088FB02460B4630463946CA
S21400457007F0ACFC07F092FD2083D0BD6806002053
S2140045800000F43F084A10B5146840F2E24358436E
S21400459003FB0141536800F5807001EB500118449D
S2140045A01160506010BD00BF6806002070B5002284
S2140045B08AB01346D91003F00704415C2141CC07AA
S2140045C041BF0AA98918013201F8283C0133252B7E
S2140045D0F0D10E4D0023D91003F00704415C2141B1
S2140045E0C90707D5E91881F82A300133252BF2D1FF
S2140045F00AB070BD0AAE93FBF2F102FB11313144F2
S214004600EC1811F8286C84F82A60EEE7680600209B
S214004610024B986C80B28002704700BFB081E00FFA
S2140046207FB50E4B02466D4603F1100618685968B2
S2140046302C4603C40833B3422546F7D1531E04A9BB
S2140046400F3211F8014D13F8010F844204D1934242
S214004650F7D1012004B070BD0020FBE7DCC10000EC
S21400466070B51A4D286810BB194B1A4CE41A1A4B31
S2140046701C4424F4FF6424F00704FFF7C9FF8442B7
S21400468014D2666BA6B1FFF7C3FF864210D2FFF7BF
S214004690BFFF06F1400383420AD83046FFF7C0FF4B
S2140046A030B1F36933F0080302D02C60286870BD7F
S2140046B004F1C8063046FFF7B3FF20B1D4F8E43063
S2140046C033F00803F1D104F50064D6E72C0100208E
S2140046D010000020B000002057DF0000BFF34F8F0F
S2140046E00549064BCA6802F4E0621343CB60BFF389
S2140046F04F8F00BFFDE700BF00ED00E00400FA05A5
S21400470040F628031B68A3F50062B2F5605F07D287
S2140047101B6BA3F50062B2F5605F01D2DB6B184736
S21400472040F20110704740F6280310B41B68A3F54A
S2140047300064B4F5605F09D21B6BA3F50064B4F5A2
S214004740605F03D29B6B5DF8044B184740F2011084
S2140047505DF8044B704740F628031B68A3F500621B
S214004760B2F5605F01D25B6A184700207047000010
S21400477028231A68B2F5006F0BD240F628031B6890
S214004780A3F50061B1F5605F03D21168084A914253
S21400479003D000230370836070471968054A91426E
S2140047A0F7D1012202709A6842609B69F3E700BF66
S2140047B0AD1007B007B0CD5E10B50C4630B9044852
S2140047C0FFF7D6FF034B23600423A380002010BD11
S2140047D0880100208C01002010B508B3114B1A6820
S2140047E0918881421CD39988814281BF0121126839
S2140047F099809A6099889A6800242AB904B19A60C8
S2140048004FF6FF71998009E0884204D001311268A2
S21400481089B20124F1E70CB198809A60104610BD69
S2140048200022FBE7D006002037B50D461446FFF7FA
S214004830D3FFD8B10369828A63B14FF6FE718A420C
S21400484008D100200090ADF804006946984738B1BA
S21400485003B030BD2B602280286848B92080F7E777
S214004860009B2B60BDF804302380F5E70120EFE7BE
S2140048700020EDE737B50D461446FFF7ADFF70B1E3
S214004880036973B1818A4FF6FE72914209D1009591
S214004890ADF8044069460120984703B030BD0120BA
S2140048A0FBE70E20F9E7000037B50379124A033319
S2140048B00446019300F14403009306CA0223143011
S2140048C0FFF75CFC228A0192E268237A009204F1E8
S2140048D02C0094E80600FFF751FC237AA4F8450064
S2140048E0054684F844302279216804F1470007F031
S2140048F02DFC284603B030BDB8C3000070B50E4C82
S2140049000E4B04F1100206460D4692E803001834DA
S21400491083E803001846FFF755FC094B94E80300AC
S21400492002221A7283E80300DE601D821846BDE884
S2140049307040FFF7B9BF00BFDCC10000341500208F
S214004940B00400202DE9F041054616468846FFF7DC
S214004950E1FDAB8A181A80B2864228BF0646374663
S2140049605FB93EB1D5E901329A4202BFAB7D43F052
S2140049700103AB753046BDE8F081AB8A2C68A868A9
S2140049801C44241AA3B2BB428CBF3C46A4B22246A7
S214004990414607F0DBFBAB682968AA8A23440A4431
S2140049A0A0449342A7EB0404AB60A7B228BFA9605B
S2140049B0D6E770B5044615461E4611B3FFF7AAFDA6
S2140049C0A38A181A80B2012829D9E37D63B1E36867
S2140049D0628A1A70120A07D02068A18A013301443D
S2140049E08B4228BF0346F4E700236382A368E36094
S2140049F0022204F112012046FFF7A4FFE37D0133F3
S214004A00E375324629462046FFF79CFF638A034437
S214004A106382E37D13B9238A0344238270BD00209A
S214004A20FCE72DE9F041164605468846FFF772FD7D
S214004A30864228BF0646B6B237464FB92EB1AB7D82
S214004A40DA0744BF23F00103AB753046BDE8F081BA
S214004A50AB8A2C6869681C44641AA3B2BB428CBF3C
S214004A603C46A4B22246404607F070FB6B682968B5
S214004A70AA8A23440A44A0449342A7EB04046B602A
S214004A80A7B228BF6960D8E770B51E46038A0446F9
S214004A901546EBB9C27DDAB10123013A0B70C27537
S214004AA000F110010222FFF7BCFFE37D9BB1228AD2
S214004AB0B24228BF324629462046FFF7B2FF238A75
S214004AC01B1A2382E37D13B9638A1B1A638270BDA7
S214004AD000230B70EBE7638A2382E8E770B50E4687
S214004AE0B0B9FFF7BDFD0446FFF7BAFD60B1094D4A
S214004AF004F1C80304F58474186859682A4603C28A
S214004B000833A3421546F7D1034B33600423B38022
S214004B10002070BD30010020500100202DE9F04338
S214004B2085B088466946044681E80C000C9EBDF8B0
S214004B303470FFF751FE4FF6FE7905460DB1444539
S214004B4005D94FF6FF74204605B0BDE8F0832B7AF2
S214004B509DF804209A421ED10099686807F009FB68
S214004B60C8B9002EEFD02B69AA8AA3B14A4509D14D
S214004B700290ADF80C0002A9984760B9029BBDF8F8
S214004B800C2043B1974206D13A461946304607F004
S214004B90F0FA0028D7D001342D68A4B2CEE7000082
S214004BA0F0B5354C85B011464FF486701F46164654
S214004BB0FFF768FC236925462BB94FF48370FFF78F
S214004BC061FC05B0F0BD002F08BF082E21D16A4653
S214004BD00221206802F05CFE636860615B7A2376DF
S214004BE09DF80030DA1F53425341627E63F30002A1
S214004BF0029BE361BDF802306276638304F118011C
S214004C0023690220984701220021206802F048FE0E
S214004C10D7E7002F08BFB6F5801F03D1002101207B
S214004C209847CEE706F4C0520023134309D04FF44A
S214004C3080714FF48170FFF725FC23690021032063
S214004C40EEE706F440720023134308D001214FF428
S214004C508170FFF717FC2B690021FF20E0E706F0C4
S214004C60A0620023134319BF012140F20110314610
S214004C704FF48370EDE700BFA81300207FB5022332
S214004C808DF80C30064B5A8B59691868033202921D
S214004C9001AA02F001FE019807B05DF804FB00BF10
S214004CA0A813002008B500214FF48570FFF7EAFB33
S214004CB0044B00221A61186801220321BDE808404F
S214004CC002F0CABBA813002013B50D4B0D4C1B8871
S214004CD0ADF804300128ADF8003004BF02238DF88B
S214004CE0043001A908BF0423206808BF8DF80030EF
S214004CF002F040FD6946206802F05CFD02B010BD7F
S214004D00FCC10000A813002037B5124C437A60603F
S214004D1000220092D0E90021206802F043FE238C96
S214004D20DB050CD563680C4D1A7A2978914206D0BB
S214004D30012A06D0022A08D063681B7A2B7003B0BB
S214004D4030BD206802F0F3FDF6E7206802F002FEB0
S214004D50F2E700BFA8130020C50600207FB51A4C56
S214004D601948637A0133DBB2272B88BF2523637289
S214004D70FFF7CAFF257BA27B144C154920684FF429
S214004D800073023202F064FD6368124A5B7A05F033
S214004D9001052846D65CFFF797FF42F21073002203
S214004DA00293009201238DF80C30314602AB206846
S214004DB002F056FB28B1FFF775FFFFF7CFFF04B0F0
S214004DC070BD054B2361FAE7CC000020A813002035
S214004DD0D90000208CC30000BD55000038B50D4634
S214004DE011462C68A41A2246014407F0D1F92C601B
S214004DF038BD00002DE9F047DFF86C814F4CD8F83D
S214004E0000304F4EC51A4F483560241A4E480444A9
S214004E1024F4FF6424F00704A542C1466FD313446C
S214004E205F19FFF7F5FBA0F58050874267D2D8F8E8
S214004E3000008418B4F5806F03D9444B82221A70A0
S214004E405BE0DFF82081424F404407F07FF9D7F857
S214004E5000A0C9F80040BAF1000F1CD1D72C4CD9DD
S214004E603C4A08F1C80308F1D80853F8041B42F876
S214004E70041B4345F9D13748FFF7D2FB10B9334B33
S214004E808422DCE71022FF21334807F06AF9334A10
S214004E9005F1C803136004F0030831482C44A4EB62
S214004EA008040440BAF1000F0AD12840C0F500619A
S214004EB02144FFF725FC3C6048B1244B8522BEE721
S214004EC0A24504D2A4EB0A010AF50060F1E7D9F87E
S214004ED0002024493068A2EB0802FFF724FCD9F82A
S214004EE0002033682049A2EB0802044613441D48FC
S214004EF03360FFF773FF002CDFD1BDE8F0871B4B54
S214004F005B68B3F1827F114B12D218780A440026F0
S214004F108A4203D1002EF0D01870EEE711F8017B1C
S214004F20FF2FF5D00126A54234BF87208320EFE768
S214004F30A54234BF8722832281E700BFB00000204D
S214004F40200B00201000002057DF00001D0B002063
S214004F50A41300208C0F0020681000209C0F002057
S214004F6000F8FFFFA00F0020A013002094010020EF
S214004F70EFF3108072B670470B4A536911699B00B5
S214004F8003F03C03C1F381110B438370136903F0F4
S214004F903F0343709369D26903F0F003C2F3031230
S214004FA013430370704700BFD0FF0FE0054A064B5F
S214004FB01B68136F23F007031843044B1067188809
S214004FC0FFF7A4B900300E408009C643E40600206F
S214004FD0EFF3108072B6704700B962B670470000F3
S214004FE010B5034CA01DFFF7E1FA0023236010BDA7
S214004FF06C0F002010B5094CB4F80710A079FFF725
S214005000C1FAA368064AB4F80D10D184C3F30F237F
S2140050109384FFF799FA0023236010BD6C0F0020DD
S21400502068060020034B044A9979117500221A601D
S214005030704700BF6C0F002068060020FFF7CCBF4B
S2140050402DE9F0410D4F06460D4614460CB9BDE855
S214005050F081EFF3108872B623462A46314638466A
S214005060FFF7A7FC03464046FFF7B6FF002BEDD040
S214005070E41AA4B21D440026E8E700BF500E002044
S21400508013B5002301F10804ADF80430ADF80600AE
S21400509021461A46083151F8100C70B90BB1ADF81C
S2140050A0042004220DEB020101200834FFF7C8FF9C
S2140050B054F8101C39B902B010BD51F80C3C1A4413
S2140050C092B20123E6E734F80C2C0020EDE700004E
S2140050D07FB500230130CDE90101CDE904336946EF
S2140050E0044B009304200392FFF7CAFF07B05DF855
S2140050F004FB00BF7601002040F6280210B51368B6
S214005100A3F50063B3F5605F0ED2EFF3108072B6BE
S214005110084900240B780C70FFF75EFF3BB113685C
S214005120BDE810401B6A18474FF4817010BD184642
S214005130FCE700BF690F002001282DE9F34740F087
S2140051402B818B88012B40F029810B681B7813BBC1
S214005150944A954C1360954A1360954A1360954A95
S2140051601360954A1360954A1370954A1360954AE2
S21400517013602278022A01D1FFF7BEFF01232370B5
S214005180914B00241C70914B1C70914B1C70204658
S21400519002B0BDE8F087032B40F0EB808C4B824ECC
S2140051A01C78002C49D13378002B00F0D680834B36
S2140051B01B78082B75D17B4A1368904683B940F656
S2140051C028052B68A3F50063B3F5605F50D34FF452
S2140051D0017041F20803984200F0C18080242CE060
S2140051E013F003071ABFC7F10407FFB2274603EB05
S2140051F0070ABAF5806F00F2B68076483A46184439
S214005200FF2106F0AEFF6E4B684AC8F800A015688E
S2140052101A6815445544DFF8A0A125F4FF65DAF8AE
S214005220000025F00705854299460BD9291A00F596
S2140052300060FFF765FA18B1852400233370A6E7EF
S214005240CAF80050D8F80010D9F80000FFF708F8A0
S214005250D9F80030D8F80020524913440546DF1B21
S2140052605C48C9F80070FFF7B9FD002DA7D0E3E74A
S214005270FFF716F80028ACD12B680190A3F5006262
S214005280B2F5605F09D21B6BA3F50062B2F5605FF2
S21400529003D29B69012101A898474C4B01221A7042
S2140052A0CBE7002B5DD0484B1B78002B96D0454FA4
S2140052B03B6843B93F4B484918681022FFF733FA5A
S2140052C00028BAD0B8E713F003021CBFC2F10402EC
S2140052D0D2B29D18B5F5806F45D84048FF211844D6
S2140052E006F03FFF3E4A3F4B31483F493D609B1A20
S2140052F03E4A134402680B409342804635D8154414
S214005300FFF786F9A0F58050854230D23D68DFF879
S214005310A8902A44D9F8000002EA0105854208D977
S214005320291A00F50060FFF7EBF9002884D1C9F8C8
S21400533000503A682949D8F80000FFF7F4F9D8F881
S21400534000303A681F49054613442448C8F8003020
S214005350FFF744FD002DADD06EE781246DE786246F
S2140053606BE7842469E7822467E7872465E783245C
S21400537063E7042B14D11E4C1323022163702046CE
S2140053802170FFF7D5F81B4A1B4B128905329A800D
S2140053901A4A1A6062789A710024F8E60D24F6E636
S2140053A00624F4E6180B00201E0B0020941500209F
S2140053B0200B00209C0F0020A4130020700100206A
S2140053C0240B0020A01300201C0B00207D010020D1
S2140053D01D0B0020180700208C0F0020A00F0020B7
S2140053E010000020B000002000F8FFFF57DF00008C
S2140053F0800F0020680600206C0F0020B95A0000BD
S21400540040F6280210B51368A3F50063B3F5605F95
S2140054100ED2EFF3108072B6084B012419781C7078
S214005420FFF7DAFD39B91368BDE81040DB691847A5
S2140054304FF4817010BD0020FCE700BF690F00200C
S214005440134A144C08B5937E43F040039376124BF0
S21400545000221A70114B1B784FF000556BB1FFF706
S214005460CFFF0F4B2B600123A360236823F4E06378
S21400547043F480632360FFF731F92B600123A360B8
S214005480236823F4E06343F480632360FFF726F980
S2140054906806002000500E40C40600207D01002053
S2140054A002020FF010B5134CA37E5B0621D4FFF763
S2140054B0F9FB2168A38C40F2E24202FB0312226051
S2140054C094F84F10A27A25200A4492FBF0F100FBD4
S2140054D01122A27222890132228162680A2101FB0E
S2140054E003236360238B5A1E228313B90820FFF719
S2140054F0A7FF10BD680600202DE9FF41294C40F6A5
S21400550001002189FEF7BEFFA37E13F0400242D1C0
S21400551043F0010303F0FD0362F38203224AA376FD
S214005520136823B121899288914200D19847A37AC3
S2140055301E4E1F48234493F82A306375FFF7E4FB9A
S214005540D4E9005473681B4A5B7A64082F1B12F870
S21400555003800120FFF7B8FB643500970027254439
S2140055606A46012441463B46306802958DF8047031
S2140055708DF80C708DF80D408DF80E4001F074FF1C
S214005580224605463946306802F08AF935B1FFF7FB
S21400559089FFFFF7B1FF04B0BDE8F081064B336129
S2140055A0F9E700BF680600206C0F0020A813002053
S2140055B0740600208CC300002157000002282DE945
S2140055C0F0411FD002D8012807D0FEE7032800F0DC
S2140055D09C80FF2800F09980F7E74D4C237B9807C6
S2140055E007D5FFF75FFBFFF7B9FB237B6FF341039C
S2140055F02373237B990701D4DA0764D4BDE8F0410E
S214005600FFF7ACBB4B784C68DB077ED5227802F000
S2140056100F07032F59D0052F77D13E498B7B03F018
S2140056200103B3EBD21F04F108004CD10622083167
S21400563006F09FFD8046002845D1FFF733FBFFF7B5
S2140056401DFB354D414606465C22284606F089FD80
S214005650AB7E2F8343F02003AB76627E237E43EA45
S2140056600223AB84627F237F43EA0223EB8494F811
S2140056702330C3F3040385F84F3094F82330C3F384
S214005680421385F8503004F11E001B232B85FEF7CD
S2140056908DFFD4F80E30E27CEB60A37C2E6043EAEC
S2140056A00223227D607D43EA02432B61012795F8A1
S2140056B04F30AB722F75E18A3944FEF763FFFFF770
S2140056C01BFF164B1F70BDE8F081124DAB7B03F03D
S2140056D00103B3EBD21F04F10800F4D1062205F152
S2140056E0080106F046FD0028EDD1094C286894F81C
S2140056F036204FF40073023204F1350102F0A8F8A8
S214005700237B43F002032373DDE7FFF7CBFA75E74D
S214005710CC000020A813002068060020C406002045
S21400572002282DE9F7430F460BD003D8012800F0D6
S214005730B281FEE7032800F0B681FF2800F0B381AF
S214005740F7E748784E68BB4D10F0010461D14FF082
S214005750FF3140F60300FEF795FE2646AB7EB64CBC
S21400576013F0200F12D0696D6FF34513AB76002946
S21400577000F09F80237895F85820627043F003036A
S2140057802370A01C06F0E2FC00236B65AB48DFF834
S214005790D082FEF7BFFEAA7E2378003018BF012015
S2140057A060F34102C2F30011AA7661F38203C2F3EA
S2140057B0C00262F3C30360F304132370218840F62B
S2140057C00200FEF75FFE62789B49D8F800000232BE
S2140057D04FF40073D2B202F03BF8AB7E7C68D90778
S2140057E009D56FF30003AB7600236B60FFF746FA2C
S2140057F02860FEF7A9FE4EB1237803F00303022BC0
S21400580000F031816DD8012B00F02C8103B0BDE88B
S214005810F083318840F60300FEF734FE3378A97E25
S21400582096F80080C3F3001363F38201A976C8F3E9
S214005830C003C1F300118B4206D108F00303022B0C
S21400584005D019D8012B31D00026344615E0A146E4
S214005850767896B17A48848AFEF75CFE201A80B283
S214005860B9F1000F04D0022886BF023880B20020AB
S21400587086428CBF002401242646AB7EC8F38008EF
S214005880C3F3C002904507D082F0010262F3C3035F
S214005890DBB243F02003AB76002C3FF45FAFAB7E69
S2140058A081F0010161F30413AB7657E74FF000096E
S2140058B0CEE795F828306148A21C0DF10701FFF7E6
S2140058C0E3F8C0B258B19DF80730002B0CBF012298
S2140058D002222378607062F30103237056E70122E8
S2140058E0F7E7A378022B65D011D8002B4DD0012BFB
S2140058F038D0544A127822B1162B7FD0182B00F0DD
S2140059008C805148072202704370022127E00C2B3E
S21400591018D0142B56D0082BEBD1B8F8201054F81A
S214005920035FC8B205EA0002474801F47F41044617
S21400593042EA0105092104F8011B0023C0F80150C2
S21400594063600CE040484FF0FF3203700123437061
S2140059508270037102220023C27043710621FEF793
S214005960E7FD53E7617A237A384A43EA01239380B6
S2140059701346374943F8061B54F8031FC2F80610AF
S214005980A2889A80A2799A7140E7627B237B2F498E
S21400599043EA02238B800B462E4A43F8062B54F824
S2140059A0032FC1F8062062685A6022891A81A27AFB
S2140059B09A722BE72A89254B05329A80264A1A6066
S2140059C0E278E0E7B4F80530B4F803201E48DB08B8
S2140059D0934228BF13462B85152300216FF004043D
S2140059E06FF0270203700723817081714470C270C4
S2140059F003714471C27103720921B0E72279E3781A
S214005A001148134003F00303022B18BF012317228B
S214005A100270437083700321A1E76279A1790B4B72
S214005A2042EA01229A800D4A1A60D4F80320C3F88D
S214005A300620EBE668060020A0170020500E002087
S214005A40380D0020680F0020800F00206C0F00200B
S214005A50E14F0000F54F0000B95A00002550000045
S214005A60A813002000261248818AFEF753FD081A64
S214005A70A51C80B2647826B1022886BF023880B2A0
S214005A800020A3B283423FF6C1AE2A4631460848FC
S214005A90FEF78FFFBAE6074B9B7E9A073FF5B6AE3A
S214005AA05B073FF5B3AEFFF7FDFCFFF725FDADE660
S214005AB0380D00206806002008B5024B9879FFF7DD
S214005AC0BFFC00BF6C0F00202DE9F04F01288BB003
S214005AD040F03D818A88002A00F03B819F4D95F872
S214005AE000B0BBF1000F00F036819D4B1C78984645
S214005AF05CB99C48067882463EB99B4E30681718BB
S214005B00B7F5806F05D982241C7020460BB0BDE81F
S214005B10F08FDFF870920968484406F017FBBBF177
S214005B20020F37603AD0032FEFD9904F3846FEF772
S214005B301FFE3B78D9F80020012B8D4B5FD19A428F
S214005B405FD1BB68DB0365D502232B70FFF758FCDB
S214005B5040F628031B68A3F50062B2F5605F09D221
S214005B601B6BA3F50062B2F5605F03D29B6803A9C6
S214005B700020984703987F4B7F4A186020F4FF6305
S214005B8023F007034FF400611360FEF7B9FD88BBEE
S214005B90FEF766FD40BB2B78022BB6D17749784FCF
S214005BA008783A68336810F0F70F894640F0A58009
S214005BB070490D681D4403F0030B15446E4B0193AA
S214005BC0A5EB0B0525F4FF65186825F0070585424B
S214005BD023D9291A00F50060FEF792FD019BD8B183
S214005BE0852488F8004090E74FF40061FEF788FDB2
S214005BF00028D0D0852388F800301C4685E79A42D6
S214005C0008D0842388F8003098F80030002B3FF442
S214005C107CAFF0E78623F5E71D6031683868A1EBB6
S214005C200B01FEF71DFB32683B684F49A2EB0B02E7
S214005C300546134453483B60FFF7D0F8002DCFD1FC
S214005C4099F80030002B7FF460AF3B687F2B7FF71E
S214005C505CAF02A903A8FEF7DDFA10B9039B89F82A
S214005C60003099F8003013F0F70F3FF44EAF40F6CF
S214005C7028053B682A68A2F50061B1F5605FAFD2DF
S214005C80126BA2F50061B1F5605FA9D20021D2F8CF
S214005C900C903C4A0846C8470028A1D13B683360B0
S214005CA0354B394F1860394B7B602B68A3F5006283
S214005CB0B2F5605F94D29B6A35484FF400719847FE
S214005CC000288DD12A683368A2F50061B1F5605FBF
S214005CD03AD2D56A2E482B4A3946A8470546326836
S214005CE021492848FFF77AF840F203239D421DD049
S214005CF040F201239D4225D107E71A443A6040F658
S214005D0028021268A2F50061B1F5605F12D2D56A6A
S214005D101D491C4A1E48A8470546326812491948BC
S214005D20FFF75CF840F203239D4206D101238AF870
S214005D300030EAE640F20225EFE740F201239D42FA
S214005D403FF47EAF80244CE740F20225C7E70024EC
S214005D50DBE60D24D9E68124D7E600BF1E0B002023
S214005D601D0B00201C0B0020180B002094010020A7
S214005D70EB17A60394150020A41300207001002042
S214005D80240B002018070020280B0020F54D0000EB
S214005D90380B0020F8B5042879D8DFE800F00B03AC
S214005DA012A0A5008026402506230724002900F01F
S214005DB0828070E04FF400764FF480750823092443
S214005DC0F4E7002974D04B4C636A13F0300F5FD1B0
S214005DD0636ADD0705D5636A23F0300343F01003DA
S214005DE06362042502230324424E3566424E334442
S214005DF09B001F68002FFCD0002A48D03444A40023
S214005E002368002BFCD0022841D100293FD0394B13
S214005E105A6A12F0010F1A463FD04FF48062C3F858
S214005E20A82020225A665A6A12F0300F0CBF4FF490
S214005E3040024FF40002D3F8901032EA0101FAD182
S214005E40520201D5D3F8A0302A4E012200210220AA
S214005E50D6F89C70FFF79EFFD6F89030726A274BF4
S214005E6022F0300242F010027262C7F30A07316B6A
S214005E70FA0903320F2A03EA010328BF0F223B4325
S214005E8043EA0273336335662368002BFCD0F8BD03
S214005E900425022303240021A6E7536AD2F8903093
S214005EA003F44003B3F5400FF8D1D2F8A030CBE7A7
S214005EB00826022303240F4901200E6600FA03F386
S214005EC0D1F890001842FBD1002AE0D00123094AFD
S214005ED003FA04F4D2F890302342FBD1D7E7012529
S214005EE0022600232C4661E72026102504230524DD
S214005EF05CE700BF00400E408004F21000F8FF0F81
S214005F0000F00F000138072848D8DFE800F0040F3B
S214005F101947232D4735244BD3F8943003F0070355
S214005F20023B022B3CD8214AD05C70471E4BD3F86C
S214005F30803003F00703013B032B33D81C4AF3E7FA
S214005F40194BD3F8843003F00703013B032B29D801
S214005F50184AE9E7144BD3F8883003F00703013BEF
S214005F60032B1FD8144ADFE70F4B1B6F13F0010FEC
S214005F7014BF0920072070470B4BD3F85C3103F0A1
S214005F803003202B06D0302B06D0102B0CBF07205A
S214005F900120704704207047082070470020704793
S214005FA0052070470120704700400E400AC20000DE
S214005FB00DC2000011C200000DC20000004870476C
S214005FC000F04902FEE700000E4B0F4A9A60D3F835
S214005FD0882042F47002C3F888200C4B5A6D42F4B5
S214005FE000525A651A6C22F003021A64084A1368B3
S214005FF023F00103136052F8143C23F0805342F858
S214006000143C704700ED00E00040000000300E40F9
S21400601074300E400B4BD3F8942002F00702022A8D
S21400602004D001D3042A0AD9074800E00748D3F869
S2140060300031C3F304230133B0FBF3F070474FF491
S2140060400040F4E700400E40C0EA210100F049029B
S21400605008B5FFF7DFFF044BD3F80831C3F3082376
S2140060600133B0FBF3F008BD00400E4008B5014612
S214006070FFF746FF184B994211D0184B994212D0A1
S214006080174B994204D1174BD3F8800000F0070055
S214006090013803281ED8DFE800F00A0A100D114B5D
S2140060A0D3F88400F2E70F4BD3F88800EEE74FF4FE
S2140060B0004008BD4FF47A70FBE7FFF7C9FF094BB5
S2140060C0D3F80031C3F300635A1C01239340B0FB9E
S2140060D0F3F0EEE70020ECE70300200005002400C4
S2140060E002001E0000400E4000F47810B0F5801F3D
S2140060F008B574D016D8B0F5802F35D005D868B15D
S214006100B0F5003F3BD0002008BDB0F5402F3CD096
S214006110B0F5602F5CD0B0F5202FF4D1BDE8084074
S214006120FFF778BFB0F5F01F37D012D8B0F5B01F24
S21400613038D0B0F5D01F40D0B0F5A01FE3D133481B
S214006140FFF794FF324BD3F8303103F00F03D840FB
S214006150DAE7B0F5101F39D0B0F5481F41D0B0F5DA
S214006160001FD0D12B4819E0FFF754FF284BD3F877
S2140061700C31C3F308230133B0FBF3F0C4E7FFF799
S21400618049FF234BD3F80831F3E7FFF743FF204BD3
S214006190D3F81431C3F30423EDE71F48BDE80840E5
S2140061A0FFF764BF1C48FFF761FF194BD3F82021A7
S2140061B002F00F0201239340DEE71648FFF756FF72
S2140061C0134BD3F8282102F00302F3E70F48E5E764
S2140061D01248FFF795FE072801D009289DE71048CA
S2140061E092E71048FFF78CFE0728F8D0082803D05F
S2140061F0042888D10C4887E7FFF70CFF044BD3F838
S2140062000031C3F3042303FB00007DE705002400F0
S21400621000400E400300200002001E0006000E0094
S214006220C0EA2101B800320000F0490200F00F0079
S214006230013870B507283BD8DFE800F00F4A4C3A23
S214006240046A3A75514C0139092931D8DFE801F062
S2140062505E474E303055303030440239032927D857
S214006260DFE801F03302272D012003240122484DE8
S2140062701146FFF78FFD2E6C464841F671332B64AE
S214006280FEF7ACF80EB100232B64434B43485C6723
S2140062903F4CFFF729FFFEF7BDF8FFF7D9FE256C48
S2140062A041F671332364FEF799F80DB10023236499
S2140062B070BD3B48FEF7AEF802200446D6E73848E5
S2140062C0FEF7A8F801240320D0E700200424CDE739
S2140062D0344CB8E7344CB6E704232360E8E70122E1
S2140062E011460020FFF756FD0223F6E7012211466D
S2140062F01046FFF74FFD0123EFE7FFF7A9FEFEF775
S21400630089F82A4B01221A600323E6E70023E4E714
S214006310072904D00929CBD11F4B012201E01E4BCF
S21400632000221A67C4E701390729C1D801A353F828
S21400633021F000BF87630000B1620000B162000078
S21400634079630000B1620000B16200006B63000078
S2140063505563000003221049D1F85C3123F0300366
S21400636043EA0213C1F85C31A2E701221146042079
S214006370FFF710FD0122EEE7012211460220FFF78B
S21400638009FD0222E7E70022E5E700BF88400E404D
S21400639000000E4000F0490200400E4000050A00D2
S2140063A00148E80180400E4084400E400016C84375
S2140063B038B5C0F30323013B04460D46092B1AD813
S2140063C0DFE803F032221A19052528192B2F184B5F
S2140063D00022C4F3043442B11648D0F84411C90769
S2140063E003D4D0F840110A42FBD103F1047304EB46
S2140063F0C3039B001D6038BD0F48FFF775FEFEF710
S21400640009F800220D4BE4E700220D4BE1E70122DC
S2140064100C4BDEE710220C4BDBE74FF480320B4BC5
S214006420D7E700220A4BD4E70022024BD1E700BF91
S214006430B0400E4000400E4000050A00B8400E4036
S214006440C0400E40E0400E40E8400E40F0400E4097
S21400645050410E402DE9F84F404E414D96F800A0B1
S214006460814688461746BAF1000F39D1FEF7D0F8B4
S2140064703C4CA0F580502060FEF7CAF8A0F50060FE
S214006480606001213848FFF793FF21680820043137
S214006490FDF7A8FE23681B68834208BF236861686F
S2140064A008BFD3F804B001F104014FF008000CBF98
S2140064B04FF0010AD346FDF795FE63681B688342DA
S2140064C005D163685B685B4506D8002305E0BAF132
S2140064D0000FFAD1FF2300E001232B700123337055
S2140064E095F900305A1C28D01E4ADFF880A052F8D2
S2140064F023600C3635464FF6FF7BC5F30A03083398
S214006500B3F5006F19D2AB885B4516D0A879291D64
S2140065100430FDF767FE2B68EC888342E4B202D1B4
S214006520AB884B450CD0033404F4FE740834254481
S21400653086EA050313EA0A0FDFD0002038700AE067
S2140065403B78A342F9D3224605F10801404605F000
S214006550FDFD3C700120BDE8F88F00BF98150020B7
S21400656010000020DC06002000550A0000F8FFFF9F
S2140065702DE98048924B5B68ADB013F4806F24AF72
S21400658032D14FF0005300221A603846FEF7F0F87A
S214006590FEF766F8054678BB8A4B8B4D01225A6497
S2140065A0EC6C3846240EFEF7E7FC8E2C60D8874944
S2140065B0D1F8B00040F00403C1F8B030844B4FF07F
S2140065C050121A601A631A66C3F89020C3F8C020E7
S2140065D0C3F8F020C1F8B0007C4AD36A23F07F03EA
S2140065E043F02003D36245E04FF000531A68022AB6
S2140065F0C7D100221A60CFE79DF89030012B31D129
S214006600446BFEF7FDFE269B5A0714D5FEF728F8C6
S214006610FEF7A1F80446FEF76FFD002CBCD0FEF78F
S2140066201FF80446FEF71CF86A4B986023689D46E0
S21400663063689847B0E784B1FDF7EAFF84420CD25E
S214006640FDF7E6FF04F14003834206D8636923B1F1
S2140066502046FDF7E5FF0028D8D105F1C800FDF774
S214006660DFFFD7E7C830FDF7DBFF002894D0D6E77A
S2140066708F2CB1D99DF89130574E012B01BF574A48
S214006680136843F00403136000233360544B022264
S2140066909A639B6B03F00F03934240F01B81D5F87F
S2140066A06C3101331DD04F4B1A68043B1B681A60CF
S2140066B04D4B1A68043B1B681A604C4B1A68043B27
S2140066C01B681A604A4B1A68043B1B681A60494BE1
S2140066D01A68043B1B681A60474B1A68043B1B6821
S2140066E01A603F4CE36C23F0405323F0010343F061
S2140066F00103E364E36E43F08073E3663F4B186880
S21400670000B10420FEF752FC236E23F0C04323663C
S214006710E36C43F006033846E364FEF72DFC9DF871
S2140067209100012812D19DF89030022B0ED83449E2
S2140067300B785BB9334A136843F001031360236E8A
S214006740314A1A40314B134323660870304BC82237
S2140067501A80304BA0221A802F4B0F201880FDF78E
S214006760D5FD1F4B2D4A9A65D5F86821DC6CC4F31D
S2140067700174230240F201118B42C2F3072CD2B2FD
S21400678000F05783B3F5817F0AD2012B48D0C0F0C2
S2140067905983B3F5807F00F0588300210B4644E010
S2140067A040F201218B4200F04A83B3F5407F00F0AF
S2140067B04F83B3F5007FF0D1D5F8703132E000BFDB
S2140067C000500E4000000E40B081E00F00400E402A
S2140067D000A0004000ED00E0B40AC64364310E405D
S2140067E000300E403C80E00F4480E00F4C80E00F0D
S2140067F05480E00F5C80E00F6480E00F8009C643A1
S2140068001F0B002044300E40000F0EF0B4C0400BAB
S214006810E6060020E8060020E40600207740205721
S214006820D5F87431C3F30721DBB24FF4167EACEB18
S21400683002000EFB00F0B0FBFEF010448445A1EB16
S21400684003020EFB02F2B2FBFEF21A4442D38A4265
S21400685040D8C349CB6D23F4FE4323F0020343EA3A
S2140068600020C8652B6DDBB2032B00F2F482D5F84E
S2140068707C31DBB21B0313F4702F2BD1B849C86EE2
S21400688020F470400343CB66486EE72A20F4FF707E
S214006890134620F0010028BFE72340EA4300B14B2F
S2140068A0486601221A608B6FDB07FCD40B6C13F072
S2140068B003030ED001233360A94B19469A6FD40701
S2140068C0FCD41A6C22F003021A648B6F13F00103D7
S2140068D0FBD13360A44CDFF8FC821120FFF710FBDD
S2140068E0012200210220FFF755FA636A23F0010314
S2140068F063629E4B4FF00009C3F80090A36A23F032
S214006900070343F00603A362994BE362226B994B9D
S21400691002F07F6213432363974B636311200421C5
S214006920FFF784FC666AD8F840A0944841F67133B5
S214006930C8F8403046F04056FDF750FDBAF1000F5B
S21400694001D0C8F840908D48FDF764FD012211463D
S2140069500220FFF71FFA6662D4F8C830884E43F06C
S2140069600103C4F8C8302CAAAB6AB365042400231C
S21400697002F8984D08A935200893FFF76BFD06230B
S2140069808DF81730089B8DF8164013F4803F7D4D28
S2140069900AAC00F07182B36D8DF82830B36D8DF8B7
S2140069A02930B36D8DF82A30B36D8DF82B30B36D6A
S2140069B08DF82C30B36D63F03F038DF82D309DF8C5
S2140069C02E3043F001038DF82E306C606E4B6F4A0C
S2140069D09A604FF000084FF48071C3E900225961B5
S2140069E0A3F810806A4A6B4B6B4E9A60C3E900228C
S2140069F05961202241463846A3F8108005F0B1FBC5
S214006A00FC2208238DF89320644A8DF89130259255
S214006A108DF8A13040F20172F823ADF89A208DF877
S214006A20A3305F4A5F4B27924FF0010938462993FF
S214006A308DF8989000F08AFC5B485C4B03604146FA
S214006A405B4B436000F0F2FC43A3D3E900233060C5
S214006A50CDE900234FF0FF334FF0FF3200F0AEFEDB
S214006A6002224FF0FF313068524C00F0B1FE524B1C
S214006A702493394603F500333068CDF89880259383
S214006A8000F038FD2146306884F8008000F0CCFE27
S214006A9028B12146306884F8009000F0C5FE3068C2
S214006AA0DFF834A100F030FF2178B5F90020306817
S214006AB000F05CFC0146306800F0A6FE6C68002C16
S214006AC040F0F4815046FDF7C7FCB37B64F3000347
S214006AD0B3733A4B3A4CDFF804813A4D4FF0200935
S214006AE0A6F82090562283F80193002183F803939A
S214006AF004F10A0083F8059383F8069383F8049359
S214006B0083F8079383F81C9305F02BFB2E482F4B36
S214006B10C4E90003252363720123237200232CAAF1
S214006B20C8F800301B232B801E2302F89B3D14A9B7
S214006B303620FFF78FFC2CAA394602F89C9D392098
S214006B40FFF788FC002878D1214B9DF8152018689F
S214006B5046E000BFAFF30080081B100500000000F1
S214006B6000300E409407C64300400E40A004C843C1
S214006B702000050007AD0AD047A0020000F0490239
S214006B800050084080010020500E0020680E0020B3
S214006B90500D0020380D0020A813002024C200004D
S214006BA016C2000068C20000D8130020A14B0000E7
S214006BB0CC130020140000203C00940000E100E00C
S214006BC0CC00002072010020D6BE898E5555550097
S214006BD0F4C2000000000E40B0130020A403002002
S214006BE01B7924903B71002A00F069811B2A28BF7C
S214006BF01B22531D8DF8143014A9531C0DF195005B
S214006C008DF8933005F0A2FA1CA8FDF725FCB64ACD
S214006C109DF814301288FA522CA99A1C51FA82F266
S214006C20002102F8201C1C98BDF8741042F81F0CB6
S214006C30093322F81B1C8DF814302CAA202302F8E6
S214006C409D3D1CA93A20FFF705FC48B9A74B1A88BA
S214006C509B788DF872300323ADF870208DF81330D2
S214006C60A34BA44800224FF00209C3E90022A24B1E
S214006C70036080F80490FDF7A5FAA048A04B0360D7
S214006C8080F8049010230372FDF70EFE9D489E4B7D
S214006C9003609E4B80F80490C36080F80890A0F8CC
S214006CA01090CDE900394B4690E806001430FDF709
S214006CB065FA9DF81510002900F0128114A8FDF75A
S214006CC01DFE9348934B03604FF0100980F8049024
S214006CD0FDF778FA9048914A914B03604FF6FE7B99
S214006CE00823C260A0F810B080F8049003720393E3
S214006CF0FDF7DAFD8B488C4A02600C2202728B4A42
S214006D00C260A0F810B080F80490FDF7CDFD88486A
S214006D10884A039B02604FF0020B874A80F8049073
S214006D20C260038280F808B0FDF7BEFD8348844B3E
S214006D300360844BC36080F804900123038280F8CC
S214006D4008B0FDF7B1FD8048804B0360804BC36000
S214006D504FF6FE73038280F8049080F808B0FDF7C3
S214006D60A3FD7C487C4B03607C4BC3604FF6FE73F0
S214006D70038280F8049080F808B0FDF795FD784B04
S214006D805B4A1A604FF6FF729A809DF81420202AFC
S214006D9005D8931DA3733946724805F0D7F99DF8B8
S214006DA01320202A06D8931D84F836301CA96E4876
S214006DB005F0CCF9FDF776FF237BB27B43F00103A9
S214006DC02373637B02F0010203F0F00362F3861381
S214006DD06373A37B0BB90623A373644BBAF8041042
S214006DE0B068C4F80F00998094F83530042161F338
S214006DF0030362F3861384F8353094F8363013B9FB
S214006E00062384F836305A4BB068BAF80420C4F823
S214006E1037009A80FDF7A2FF564C574B1B78002B85
S214006E2040F0EE80554A136923F00403136130BF27
S214006E30F3E7D5F87431190EC3F30743F5E4D5F834
S214006E407831EFE4D5F86C31ECE4D5F86C31F2E744
S214006E50D5F87031EFE7022CD5F8803107D0032C37
S214006E6008D0012C7FF405ADC3F3072302E5C3F376
S214006E700743FFE41B0EFDE40DF1170221462C200C
S214006E80FFF7E8FA00283FF4A1AD0DF1160207A9B6
S214006E903C20FFF7DFFA9DF82E3020B19DF81C202D
S214006EA062F300038FE560F300038CE52068B060B2
S214006EB0A288A3798AF80630AAF8042009E60E23E9
S214006EC08DF814300A238DF893302D4B1A68CDF8C0
S214006ED095205A681B7ACDF899208DF89D3093E658
S214006EE009212748EBE600BF04C3000007C30000E3
S214006EF0C8060020541500200BC30000080500201B
S214006F000EC30000EC06002011C30000FEC1000006
S214006F107415002014C300006005002039510000DD
S214006F2025C30000B805002036C30000C95A00007B
S214006F300004002047C30000ACC20000100600207A
S214006F4058C300008BC300005804002069C300002B
S214006F50B9470000A80300207AC30000DD4A0000FD
S214006F60D0060020E100002009010020DB00002000
S214006F7003010020A0010020C406002000ED00E070
S214006F80FAC20000EFF3108672B600231A460DF11F
S214006F901901AC48FDF778FD3046FEF71DF89DF860
S214006FA0193013B10023C8F80030D8F80020EFF3EA
S214006FB0108672B6C2F501739BB222440DF1190118
S214006FC0A048FDF761FD03463046FEF705F8D8F801
S214006FD0000018440328C8F8000011D9B4F800903F
S214006FE009F1040398420BD307D8608804284FF0B1
S214006FF000070BD0062800F081810023C8F8003077
S2140070009048FDF787FA0028BCD10BE722796F80FD
S21400701009F1FF33082A9BB200F0DD801BD8042A52
S214007020894E37D0062A4CD0022A1AD1022B40F0BD
S2140070306181B4F805700022B7F5007F28BF4FF4D1
S21400704000770323114602203370A6F80170FEF77E
S2140070503FF82F80D1E7102A00F0FC8003D80A2AD8
S2140070606ED0062292E0122A00F09980522AF8D1B9
S214007070B4F80500FDF7B0FB0028BED0037B5B0725
S214007080BBD5A9F1030292B27049B4F80500FDF72A
S214007090F1FBB2E7042B79D1B4F80570B8B2FDF76E
S2140070A09BFB58B1027A41687780022A14BF0223FC
S2140070B0012305203070737003205FE06F800A2282
S2140070C064E0DFF88CB1B4F80500B4F80710CDF82A
S2140070D040B04FF00203A9F107028DF8443092B297
S2140070E00BF102030093019210AB0CCBFDF716FDDB
S2140070F04FF6FF7A5045814604D16368C3F30F23E9
S2140071006B80DCE7CDE900774FF002038DF8343072
S214007110CDF830B001300CAB0CCB514680B2FDF749
S214007120FDFC50451CBF00F1FF3080B207233370D2
S214007130A6F80190A6F803000022114604201DE0E0
S214007140022B40F0D780B4F80500FDF745FB002879
S2140071503DD0037B990714D52B882CAA013B22F837
S2140071608C3D10A9B4F80500FDF75EFB024648B951
S214007170354BBDF824200B2119701099FDF7A8FF98
S2140071803BE702226368C3F30F236B802E4B207904
S2140071906988587001261E7059801A71CCE7B4F8B9
S2140071A00500FDF719FB90B1037B1A0711D5A9F16D
S2140071B0030292B22549B4F80500FDF75BFB0246D0
S2140071C00028DFD1204B132119700146D6E7012293
S2140071D0D8E70322D6E7A9F1050B1FFA8BFBBBF114
S2140071E0020F03D0BBF1100F40F08680184BB4F8A6
S2140071F00500B4F8071010930023CDE900338DF88E
S21400720044B010AB0CCBFDF789FC4FF6FF739842E9
S21400721006463FF472AF2B882CAA043B22F8963D14
S21400722009A9FDF701FB024608B16E80AEE7064BE2
S214007230BDF81A205E8009211970911C59700999B1
S2140072403AE700BF380D002076010020A701002095
S214007250A9010020A9F1050B1FFA8BFBBBF1020F59
S21400726002D0BBF1100F47D10027B4F80500B4F8E0
S2140072700710DFF8A4A0CDF840A0CDE900775FFAAC
S2140072808BFB8DF844B010AB0CCBFDF747FC4FF6EC
S214007290FF79484506463FF430AFCDE90077CDF894
S2140072A038A08DF83CB001300EAB0CCB494680B20E
S2140072B0FDF734FC2B882CAA4845A3F106030746A5
S2140072C022F8963D18BF00F1FF3709A9304618BFCF
S2140072D0BFB2FDF7A9FA02460028A6D10C4BBDF8AE
S2140072E01A205E8011211970111D59709F8009990E
S2140072F0052043E7042249E7024647E7054B10937B
S21400730010A90223CDE912771193FDF7B9FE74E6B2
S2140073107601002011000020A9010020FEE70000F1
S21400732008B5FEF751FE064B0649074A8B4201D3C5
S214007330FCF7EAFE52F8040F43F8040BF6E700BF2A
S21400734010000020B000002014D7000038B5044616
S21400735000F07CFA0FCC044D0FC594E80F0085E8CA
S2140073600F00002038BD00BFA018002047F6FF73AE
S2140073709A4270B553D0022953D82B4B13F83100DC
S21400738001281D464FEAC1010CD10B44D8780138BC
S21400739000B220B1596831F910109142F7DC013083
S2140073A0C0B270BD0B4458680028FAD0B0F900404F
S2140073B0944204DBB0F902409442B8BF1446294414
S2140073C0A4F1C8034978282293FBF2F35B421BB270
S2140073D09942DCBF01F1FF331BB24FF47A7600EB23
S2140073E0C3050133EA88AD681BB214FB025222EAD9
S2140073F0E272994202F5FA72B2FBF6F204DD00EB95
S214007400C305AD889542EAD200EBC30030F8040C01
S214007410904228BF1046002808BF0120C0E7FF2082
S214007420BFE70020BDE700BFA018002038B5084B16
S21400743004460D46186000F03BF82946204600F04A
S21400744027F8044B021C18BF01221A7038BD00BF73
S214007450C0180020C41800200846114600F03CB8AA
S21400746000B10C3001F00EB900B10C3000F0B4B928
S2140074707047431E012B03D9031F584258417047DB
S2140074800120704708B500F09DFB0128FBD108BD20
S21400749038B504460D46002100F0B4F929462046CA
S2140074A000F0C6FF00280CBF2046002038BD0000B4
S2140074B010B5044600F044FB3CB1054A236C002B93
S2140074C008BF1346034A136010BD636BFFDE00BFA0
S2140074D0717400001C00002010B50C4600F052FB32
S2140074E01CB1BDE81040FFF7CDBF10BD00B10C3099
S2140074F000F09EBC00B10C3000F0F4BF836A2DE9AA
S214007500F74F0446884613B1C3888B4246D0D4F85A
S2140075102490B9F1000F45D0D9F80830002B41D09F
S214007520D9F80C30002B3DD00026B24637464FF037
S214007530180B47F6FF73D9F80C20524502D80FBB3C
S21400754001202CE0D9F808500BFB0A55EA89424581
S21400755013D82A8A424510D3B5F912209A420FD082
S21400756094F864100193A4F10C00FFF7FFFE019B52
S2140075700646E278B2422F4604D90AF1010ADAE753
S214007580FF26F6E704F170033A464146204600F02F
S214007590DCFCA4F80680A76284F86D60002003B0C7
S2140075A0BDE8F08F0320FAE72DE9F0473A4F3B4E4F
S2140075B004468946924601F081F93D6801F08CF94F
S2140075C000285CD00023336001F07EF9A36A32689D
S2140075D0934203D113B1ADB24D455AD000F0F2FA42
S2140075E0012804D0012000F0CDFAFFF74BFF2C480D
S2140075F00368D4E909128046002B45D08B4203D19C
S214007600306808B1824242D01D68002D3CD0086820
S214007610854239D13168126811B10968914236D075
S2140076205968204600F05AFE0546E17894F86D3019
S214007630994228BF1946204600F051FC65B9636A96
S214007640C8F80030A26A3260012349462046C7F8CF
S214007650009000F0B7FC0546B5FA85F033214009E6
S21400766000F03AF95146204600F042FE0D4BA16A62
S2140076701B68A4F10C0098472846BDE8F087BAF1CD
S214007680000FA3D03060A1E712680968C9E700259B
S214007690CBE70025F0E700BFC8180020D018002070
S2140076A0CC1800201C00002038B504460D46FFF715
S2140076B025FF024628B929462046BDE83840FFF790
S2140076C073BF38BDF8B50D460646084600F076F995
S2140076D02F1C18BF012738461F21002400F0FCF895
S2140076E038461F217562B46200F0F6F8E868234653
S2140076F04FF6FF711827DAB282420BD30C460B4ABC
S214007700002313600A4A214630461360FFF7CCFF79
S2140077102046F8BDAC6807FB0242D4898C4202D2F0
S214007720002CECD021460133E5E700BFCC18002042
S214007730D0180020C088704738B50A78054610462D
S2140077400C46FFF796FE88B149780846FFF791FE8B
S21400775060B10A43520709D400F034FA430707D44D
S21400776021462846BDE8384000F07CBB012038BDE5
S2140077700220FCE700B10C30FFF7DEBF38B5054647
S21400778008780C46FFF775FE80B14A781046FFF77A
S21400779070FE58B1042A09D000F014FA830707D403
S2140077A021462846BDE8384000F06CBB012038BDB5
S2140077B00220FCE700B10C30FFF7E0BF30B4DDE993
S2140077C0024500B10C30CDE9024530BC00F08CB962
S2140077D000B10C3000F0B2BA70B504460D4616463D
S2140077E000F0F0F901280BD129462046FFF75CFF90
S2140077F038B9324629462046BDE8704000F012BA35
S214007800022070BD01F070B838B5044600200D4661
S21400781000F0D1F834B104F10C002946BDE8384038
S21400782000F075BB2046F8E738B5044648880D4694
S21400783000F0C1F804B10C340021204600F067FBCC
S21400784029462046BDE8384000F02CBB00F0B4B80E
S21400785000B10C3000F09BBC00B10C3000F0B1BCA5
S21400786007B502AA4FF4007322F8023D0749FFF756
S214007870F3FFBDF80630B3F5007F05D1022808BF38
S214007880002003B05DF804FB0120FAE7D4180020BE
S2140078900846114600F0E2BB00B10C3000F062BCB6
S2140078A038B5154658B100F10C0411B1204600F069
S2140078B09FFC35B12046BDE8384000F0E3BC0446E6
S2140078C0F3E738BD024B1960024B1860FEE700BFB5
S2140078D0200000202400002008B528B9034B1960BA
S2140078E0034B1868FFF7EEFF08BD00BF200000201E
S2140078F0C018002010B5044601F02AF820460321DF
S214007900BDE8104000F028B900B10C30FFF7F2BF18
S21400791010B54378044643B100F054F9012804D169
S2140079202046BDE8104001F011B8022010BD00B19D
S2140079300C30FFF7EDBF10B54378044643B100F0B6
S21400794041F9012804D12046BDE8104000F0D7BF19
S214007950022010BD00B10C30FFF7EDBF70B51E461B
S214007960437804461546DBB191FAA1F1080A00F007
S21400797097FAEB0703D5204600F0F3FF70B1AA2074
S214007980294600F0F1FF9DF81030204683F00103F1
S2140079903246442100F0F8FF002070BD5520EFE786
S2140079A00220FAE710B49DF8044001940C305DF80C
S2140079B0044BFFF7D3BF704770470000024B3121DE
S2140079C05B680120FFF788BFB081E00F024B1B68A1
S2140079D003B11847704700BFD41A00207047000054
S2140079E038B1044B6FF0FF021A6003F100731040C9
S2140079F018607047187008440378DA072DE9304895
S214007A00044619D5826ABAB16FF30003037053694E
S214007A1019684B1C03D0BDE8304801F03DBBD0E9E7
S214007A2022234FF0000B03F0080C5BEA0C0305D191
S214007A30037843F001030370BDE830884FF48031CB
S214007A4000F0C8FFD4E9222302EA000B03EA010C87
S214007A505BEA0C03F0D004495A46A4F10C0009680E
S214007A606346BDE83048084728000020F7B50646BC
S214007A700C4641B90A46072103F092FD164B1C60DE
S214007A805C6003B0F0BD154B154D07271F600B79E2
S214007A9085F8603002A84B7940F8043D012103F0D8
S214007AA09BFD019BC2B2D34000F00F0040EA0310DA
S214007AB085F86100A37985F86230E37985F863304C
S214007AC023686B662379074A0133936139463A4641
S214007AD0304603F065FDD4E7581C00200400084437
S214007AE0F81B0020000008402DE9F34BDDE90A678B
S214007AF0D0E92289044689EA070188EA060001EAF5
S214007B00030C00EA020B8CEA09018BEA0800C4E9C0
S214007B10220122F0010006EA0008002507EA030910
S214007B20194648F0405249F00803CDE9005502F0E6
S214007B30FFFE2046FFF760FF284602B0BDE8F08B48
S214007B40034A0368002B08BF1346024A13607047B7
S214007B50DD7900002800002031F00F0001BF054A43
S214007B60536801F00F0123F00F0306BF0B43536069
S214007B70012070477C0F0021014B00209960704760
S214007B807C0F002110B5032810D8DFE800F017029C
S214007B901013002211460124204603F09FF92CB151
S214007BA007490868FFF71CFF00230B6010BD002282
S214007BB00121F0E7012211461446EDE70022FAE71C
S214007BC0FC1A00200F4B5B68C3F30363013B0B2BCF
S214007BD00DD8DFE803F014140614141414080A0869
S214007BE00808032070470420704705207047064B9E
S214007BF0DB6813F0060F14BF042001207047022034
S214007C00704700BF0040084000500840044BD3F8BF
S214007C10883013F0A00F0CBF01200020704700BF73
S214007C20004008407FB51546B0F84C202B792968EF
S214007C30012B1BD18A421ED8891A1A1C18BF012292
S214007C402C7B022C19D00034AB6818BF0124AE7B05
S214007C50003618BF012602966D7BB5FA85F56D09CC
S214007C60CDE9004502F0D6FF04B070BD022BE3D18B
S214007C701A460021E4E70021DFE70023E7E70000DB
S214007C800138C0B202289CBF0F4B53F820200F4B80
S214007C904FF06051196003F1007388BF00221A602C
S214007CA04FF400121A600A4A136F23F0060343F0DB
S214007CB004031367074B4FF0805119600423C2F882
S214007CC084300020704700BFC8C300001860084416
S214007CD00000084094400846114B1B7813B1114B26
S214007CE006221A60104B0022C3F884200F4B4FF078
S214007CF080521A600E4BD3F8883013F4800F0D4B69
S214007D0009D1826912F0800F18BF0B494FF4001298
S214007D1014BF0A601A604FF060521A600020704765
S214007D20DC1A002070000844000008409440084414
S214007D3000400840186008441860084638B51446E5
S214007D40826982EA04030B400D465340290783618B
S214007D5006D514F0080F14BF2B4A2C4A08231360CC
S214007D60EA0706D514F0010F14BF274A274A012355
S214007D7013606B070CD503F009F814F0040F14BF5A
S214007D80234A244A4FF400731360234B04221A60DC
S214007D90A80706D514F0020F14BF1B4A1B4A02237D
S214007DA01360E90606D514F0100F1C4B14BF002212
S214007DB01B22DA642A061BD514F0800F184C19D043
S214007DC0184B4FF400121A60FDF7D2F86368C3F33D
S214007DD00363032B06D1144A536823F0F00343F0E1
S214007DE0E00353600D4B40F201225A62FDF7F4F8AF
S214007DF0002038BDD4F888305B025EBF0B4B4FF4D2
S214007E0000121A60F4E700BF440008464400084425
S214007E101C6008461C60084488400844000008406F
S214007E2000400840186008467C0F0021186008448F
S214007E30014B986901F0AFBF00600840C26A62B1AA
S214007E401368022B09D9536AC3F3072040B1126A9C
S214007E50DBB25343B3FBF0F070470C38FFF746BB7A
S214007E607047000010B506480C7843699AB24B7804
S214007E701B0643EA044313434361002010BD00BFC2
S214007E80F81B0020054843691A0C0B7812041343AC
S214007E904A7843EA0223436100207047F81B00201B
S214007EA001F0CEBFF8B5044600F1640608686066C7
S214007EB08B88A4F8683008460D4601F023FB074679
S214007EC0304601F055F9A988204601F075FAA4F865
S214007ED0680004F13C0002F01EFB3846F8BD38B5D9
S214007EE0054690F8640003280C460ED001F060F9B1
S214007EF0A04204D895F8640001F05AF904462C71A3
S214007F00204601F061F9002038BD0220FCE738B5B4
S214007F1090F86430032B044613D0E170836A002582
S214007F208BB190F86D308B4208D28562FFF702FC69
S214007F3001462046FFF7B8FB284638BDFFF7CFFFBF
S214007F40FAE70220F9E71846F7E72DE9F0411C4664
S214007F5015460E46804602F043F8002814BF074632
S214007F60012788F86C70A9896B682360761A668189
S214007F7001F074FEAB686289000BC0EB8040B0FB7A
S214007F80F7F0B3EBD01F89BF2168636003FB0211D3
S214007F90216084BF002161603F2A08D921689009CA
S214007FA09B0100FB031302F03F022360628102F094
S214007FB027F820B141F658332381BDE8F08140F61A
S214007FC0AC53F9E72DE9F0411D46036A012B044640
S214007FD00E46174626D090F86C8002F001F88045D1
S214007FE006D004F170033A4631462046FFF7ADFF4F
S214007FF035B1D4E91C0102F0B7F8B0B1022012E0A6
S21400800001F0E2FF236F9842F3D101F0E3FF636FC4
S2140080109842EED12046FFF7EFFC0121B4F87A0033
S21400802002F0C6F80020BDE8F081B4F878304FF4CE
S2140080307A70584302F0DCF8ECE74FF4807103F0F6
S214008040C1BA00004FF4807310B9024A136070473B
S214008050014AFBE7884008468840084437B50DF1DA
S21400806006020D4600F054FF044688B185B12B7811
S21400807013F0F70F0CD0FCF77BFF074BBDF806207C
S2140080801C60064B1A80064B6A881A80FCF7A4FF11
S214008090204603B030BD00BFE01A0020E41A0020DE
S2140080A0DE1A0020F7B505461446084611B9012029
S2140080B003B0F0BD002AFAD0022905D800221146E6
S2140080C000F026FF0028F2D006888278330402F0FB
S2140080D0070742D40379F81F414241412173C2F396
S2140080E000116173C2F380112174C2F3C001C2F3A0
S2140080F040126174A2740BB995F85E30013BE374CC
S21400810001F006FEC2B212B3063F012F1FD8144B71
S214008110DB6CB31F9BB26946012000F047FD9DF85B
S2140081200100AB6B9DF900604000C0B20BB1314658
S2140081309847E073A673627CDDF8021005F13C00F8
S21400814002F043FA0123206023720020B0E70020EB
S2140081508023E38120602072AAE70220A8E700BF00
S21400816000000840F8B506461446177AFFF79AFF4F
S214008170054650B9237A43B127723046FFF75EFEB4
S21400818022460146304602F0EFF92846F8BDB3FA1B
S21400819083F3192B084610B5114610D0C3F1190207
S2140081A0D2B2062A28BF0622931D01249C40A4B200
S2140081B0A14228BF214600F077FC204610BD0022D1
S2140081C0F2E708461188B1FA81F1192910B50DD0E9
S2140081D0C1F11901C9B2062928BF06218C1D012349
S2140081E0A340138000F07CFC002010BD0021F5E7C2
S2140081F0094B0121D3F8EC20996203F18063243304
S21400820052074FF40051196041BF03F10073C833A1
S21400821004221A60704700BF0010084038B54B783B
S21400822005460C46C3B9FFF757FDA378C3B9114BF3
S21400823040F6FF725A62E378B3B90E4B40F6FF720F
S2140082405A6503F1C063A3F6BC7360221A600A4B3A
S21400825040221A60002038BD1846FFF711FDE4E7FB
S2140082602846FFF7C5FFE6E7044B60221A60044B7A
S214008270EEE700BF00100840884008444400084469
S2140082808840084638B50C4BD3F8EC5003F18063B1
S214008290EC334FF480641C60084B0020186002F03A
S2140082A005FE074B4FF400521A606A0542BF03F101
S2140082B0007398331C6038BD00100840E01A002098
S2140082C054100844082310B1024A13607047024A4B
S2140082D0FBE700BF884008468840084410B50846BB
S2140082E0144601F0C9FC204601F0C6FC002010BD73
S2140082F02DE9F0473E4F04468A4601F071FE3B6882
S214008300984201D001F0E2F83A4B3B499E693B4A5D
S21400831006F4E076A6F5C0735E425E41384B93F8ED
S2140083200090384B5D68D1F8A030E562C3F3812336
S2140083301370D1F8A4306189C3F3812353704FF6CC
S214008340FF73994204D0304B1B680BB12046984708
S2140083502E4B1A68AA4298463AD02046FFF76EFD82
S21400836001F0B6FF75B3296801B1A968284B1B68F0
S2140083700BB1204698473DB32B682BB32B691BB334
S2140083809A6862641A685B68E26323644E4504D0A8
S214008390204B2046196801F00FF804F13C0002F06B
S2140083A0B7F8C8F8005001F01BFE2378386043F099
S2140083B001032370184B06221A60184B01221A700C
S2140083C0BDE8F0872946D1E700236364E363DCE772
S2140083D0BAF1000FDAD14E45E3D00E4B20461968AD
S2140083E000F0EAFF04F13C0002F095F8D9E700BF80
S2140083F0F01A00200060084000000840EC1A002038
S214008400981B0020EC0F0021F41A0020E81A002028
S214008410D81A0020F01B002070000844DC1A002048
S21400842048220021014803F09CBE00BF101C00201B
S2140084302DE9FF418846044600284CD00022002340
S214008440C0E925234FF0641200254FF6FF73C0E9FC
S21400845016220266214A456285738563A0F8F030CD
S2140084604565C38200F10C07112003951380FDF7C4
S21400847047FD04282DD1384602F0DEFC3846FFF7CB
S214008480CFFF174B60225A6403A93846FFF7C6FE93
S214008490626A06464FF0FF313846FFF74FFC4FF052
S2140084A04052082310461946CDE9005502F040FA1E
S2140084B000F068FE4EB92046FFF7D2F90646B8F13E
S2140084C0000F02D008B92046C047304604B0BDE8C9
S2140084D0F0810226F9E7A061FFDE00BF001B002046
S2140084E00000084070B50C46054600F13C060988B9
S2140084F04C3001F0F1FF6188208005F1540001F056
S214008500EBFFA188608005F1520001F0E5FFE188ED
S214008510A08005F1500001F0DFFF2189E0803046A1
S21400852001F0E6FF61892081304601F0E9FF6081B5
S214008530304601F0EDFF002070BD0000B0F8E430DA
S2140085404FF6FF72934211D0094A0A49D26B100CBB
S214008550C2F30112088001320749B3FBF2F3074A5F
S214008560074808601B04136000207047032070470C
S21400857000600840001B00203C6008443C60084641
S2140085800000FFFF70B504460E461546FFF73EFB9B
S214008590002861D04FF40061204603F013F838B18C
S2140085A001210846FEF798FF2D4B4FF400721A6023
S2140085B031462046FFF778F8064600284AD1294B70
S2140085C04FF440621A6015F0020204D1264B274988
S2140085D01B789B020B60264B4FF44061196022B952
S2140085E0214B244A5B789B02136002F0CFFB15F008
S2140085F0040F14BF204A214A4FF480631360184BBF
S21400860004221A602046FFF718FD18B105F0010095
S214008610FFF718FDAA0602D52046FFF78FFF204673
S21400862000F06AF998B12046FFF707FD78B14FF4DD
S2140086300011204602F0C6FF00280CBF03210421CB
S214008640002000F0BCFA431C08D00D4B98600020B8
S214008650FFF7B1F9304670BD0226FBE70326F9E7BF
S21400866088400844A0000844EC1A0020A0000846F1
S214008670A4000844A40008461C6008461C60084481
S214008680F81B002073B506461D46FFF77BFF044621
S21400869088B995E803006A4682E803009DF804302E
S2140086A0B6F85210012B034607D1884205D2009433
S2140086B0104602F02FFB02B070BD5B1A0093F7E77E
S2140086C0094A13884FF6FF718B4210B509D0074848
S2140086D0074C046000F100701B040360118000204A
S2140086E010BD0320FCE700BF001B00203C600844D0
S2140086F00000FFFF000000005F4B2DE9F3471C68F9
S21400870081468A46154604B10C3459A1D1E90001C8
S21400871000EA090201EA0A0313436BD009F4801049
S214008720002150EA0102554B18BF554AD3F8903045
S21400873018BF136009F40010002150EA01021CBFA4
S214008740504A136009F000520023134309D04E4BE1
S2140087505B6903F07F43B3F1007F02BF4B4B0222FD
S2140087601A6009F040520023134305D048490868B0
S214008770FFF736F900230B6009F0010200231343CC
S21400878029D04FF000080022002300210120CDE967
S214008790008802F0CDF8012001F020FB4146208140
S2140087A00120FEF799FE3B4BD3F888305A0208D4D6
S2140087B0A36913F0800F14BF374A384A4FF40013EA
S2140087C0136037490868FFF70BF900230B6023781E
S2140087D043F00403237000220AF00803134309D071
S2140087E00121204600F0F6F82AF0080749EA0009B9
S2140087F047EA010AD4E9222309EA02000AEA030149
S21400880002460B46134306460F461CD0254BA4F1E2
S2140088100C0019683B468847194A4FF0FF3313602F
S214008820184A136006F00802002313431EBF1E4BAF
S21400883000221A601D4A002316401F4056EA07030E
S21400884001D0FFF73DFFEB070DD51949194A086817
S214008850136800211160184A012111701BB102B083
S214008860BDE8F047184702B0BDE8F087AFF30080D8
S2140088700100303008000000C018002000500840FA
S214008880300000202C000020F81B00200040084686
S214008890FC1A00200040084018600846186008448B
S2140088A0F81A002028000020E01A00200000F02F10
S2140088B0081B0020041B0020021B0020014B5B68E5
S2140088C0704700BFB081E00F024B4FF400221A60E1
S2140088D0704700BF88400844024BD3F88800C0F3B6
S2140088E0C040704700400840014B024A1A6070477B
S2140088F0D81A00206D7A0000802102F063BE0320A3
S2140089007047000008B54378033BDBB2032B96BFE5
S214008910044A0021D15CFFF72FF90120BDE808408A
S21400892001F0F2B8D4C3000010B52823A0F84A30EE
S2140089300123044643700449FEF7C4FE2046FFF7B1
S214008940E1FF002010BD00BFE8C40000FFF7ECBF49
S21400895010B50446FFF7FAFF2046BDE81040FFF7C3
S214008960D1BF002070470000064A1164D36B55281B
S21400897023F00F030CBF43F0010343F00203D3635D
S214008980704700BF006008400D4810B5072404601B
S2140089900C480D4C6BB142F04002C16201230263E9
S2140089A00A4A23604FF48043136053609360D36099
S2140089B010BDC362064A036323604FF48043F3E7A7
S2140089C0340008440000084034000846A00008446C
S2140089D0A000084638B505460C46FCF7C9FA696992
S2140089E02B690C4023432B61FCF7F6FA00200CB9E8
S2140089F0002138BD0821FCE70A4B0B494FF48032B2
S214008A00C3F8E8200A609A6BD1B2C2F307229967CE
S214008A109A6704229A6700229A679A679A679A6703
S214008A209A67704700100840EC1008462DE9F74F8B
S214008A3000EB4000040104F1804404F501241D46C7
S214008A4026689DF83030019306F00706B31D012610
S214008A509E40771E8A46636805EA0701A6EB010872
S214008A6043F0005B42459146594418D94246504669
S214008A7003F06CFBA9EB080259460AEB080003F06A
S214008A8065FB019B43B14D443E433540E560A3681A
S214008A90AB421CBF0223A36203B0BDE8F08F504672
S214008AA003F054FBEDE7000038B50C4C2260606024
S214008AB00D46FCF75DFAD4F8E0305B0758BF042398
S214008AC04FF00002E260A56058BFC4F8E830FCF73B
S214008AD083FA0DB10223A36238BD00BF0010084020
S214008AE0044B1860044B40F6FF72196058605A62D7
S214008AF0704700BF0C1B00203010084000EB400001
S214008B002DE9F84F040104F18044042A04F50124F9
S214008B1006D8013A032A2DD8DFE802F044413E3B4E
S214008B200B78A3614B78A3618B78A361CB78A361A4
S214008B302768D4F80880D4F804A007F00707BB1D00
S214008B4001279F4007F1FF3909EA0800161FA7EB27
S214008B50000B5E4501F104054AF0005A0CD8294680
S214008B605044324603F0F2FA06EB080249EA0707D9
S214008B703A40A260BDE8F88F5A462946504403F0B2
S214008B80E5FA05EB0B01A6EB0B02504603F0DEFA06
S214008B90EAE70B78A36101310B78A36101310B780A
S214008BA0A36101310B78A361BDE8F88F37B50025C6
S214008BB000951446FFF73AFF204603B030BD302339
S214008BC0584310B500F1804404F50124204623687C
S214008BD003F007039A1D01239340226AC2F30C0296
S214008BE08A4284BF6268E06803F1FF339BB281BFAC
S214008BF009180B409B1803F1005394BF4FF0FF3049
S214008C00187810BD3023584300F1804000F501204D
S214008C10006AC0F30C007047402910B50A464FF0B2
S214008C2001030BD8064C0146C4F8B8300320FFF702
S214008C3065FF0423C4F8B830002010BD1846FCE7D2
S214008C400010084008B5FCF793F9194B194A0121A2
S214008C509965C3F888101160174951600721516261
S214008C60164A1180164900220A804FF4A021C3F844
S214008C70E81003F1C063EC331960124B1A60124B14
S214008C80D3F888305A020DD5104B114A1B684FF4A2
S214008C908001116053B15B6A1B065EBF0D4B4FF43B
S214008CA000121A60BDE80840FCF796B99B69FFDE23
S214008CB00010084060100840101B0020921B002087
S214008CC0901B0020941B002000400840C018002085
S214008CD088400844186008440C4B07221A800C4B46
S214008CE000221A800B4B1A604FF4005258605A62EA
S214008CF0094BF0221A6003F10073A0221A60074B9A
S214008D000122C3F8B820FFF79DBF00BF921B0020CA
S214008D10901B0020901008404000084400100840B7
S214008D202DE9F041044698B1404EFCF721F9318810
S214008D303F4BDFF81CC101F07F0202F07807022CDF
S214008D4005461F445ED1DCF8004024B9FCF744F920
S214008D500320BDE8F08124F00104DCF8000020F0D8
S214008D600100A04252D10023CCF8003023886FEADD
S214008D7043436FEA5343BC42238037D12D4ADFF882
S214008D80D4C01388ACF18008CF18083B9BB204F11E
S214008D900801F81A614528BF4146082B80B204D95D
S214008DA0B1F900E0BEF1000F3BDB13802288A1780A
S214008DB0214CC2F30C02E26301F00701C2B21F4865
S214008DC032800429C260436210D11D4B1D4AD3F87D
S214008DD088301D4B1B684FF4800111601BB35B6A23
S214008DE01A065EBF194B4FF400121A60124BD3F8E6
S214008DF0E030DB0301D5FFF7FFFD2846FCF7ECF873
S214008E000020A6E7012C08BF3C46A6E7A21AD31A04
S214008E10084A128848BF8033083A9A42A6DC284699
S214008E2094E70C46B1E79B69FFDE00BF901B00206D
S214008E30101B0020921B0020001008406010084005
S214008E400040084088400844C018002018600844C5
S214008E50941B0020901B00201348144B02881B888C
S214008E6013491344073B083292B203F0780330B537
S214008E700280CC180F484262A27812F007000AD18E
S214008E80E07810F0810F03BF80080B4D285C0420AB
S214008E900B4402439A70042803D1084A53681B0304
S214008EA0FCD4074B1C6030BD921B0020901B00209A
S214008EB0101B00206010084068C7000000400840F3
S214008EC0941B002010B5054C206828B1C30701D4B8
S214008ED0FFF726FF0023236010BD00BF941B002071
S214008EE0094B4FF480321A60084BC3F8E420D3F8DD
S214008EF08020C2F30C02782A05D8D3F8E030DB03D2
S214008F0001D5FFF779BD7047EC1008440010084003
S214008F102DE9F04705460F461446FCF729F84F4B57
S214008F204F4E1988824601F07F034E4803F07802C0
S214008F30022D02441BD14C4DB6F800C02D689DB9D9
S214008F4001EB0C05073D05F078050544EB1A1B1AE6
S214008F50318848BF803399420DDC5046FCF73CF818
S214008F6000252846BDE8F08725F00105EEE7012D2F
S214008F7008BF1546EAE70FB9002C45D095423B4995
S214008F8046D1CE68B6B204B126800A68002F3BD020
S214008F9002F0070808F106024FF0010808FA02F886
S214008FA0334AD2F88020C2F30C029A421FFA88F99C
S214008FB03CDD2B889CB21B04CFD4AB78C4F30C04E6
S214008FC009F1FF3003F00703A41B49EA0000044040
S214008FD0052B3B70A4B225D824B2E0430421C00F71
S214008FE0FEF77AFC7C8009F1FF331E40214B1B689C
S214008FF0A4B29A19BA6032194245CBBFA9EB06064D
S2140090000023BE80BC80FB605046FBF7E5FFA8E768
S214009010A5F10802824238BF05F178021688C6F329
S2140090200C06B0E700F074FE241AD5E78A6809F14A
S214009030FF33921B49EA030313400F4A9BB21CB24C
S214009040526843B9C2F30362032A14BF00220822FF
S2140090503A707B80C7E70822FAE700BF901B002023
S214009060921B0020101B0020941B0020301008408C
S214009070001008400C1B002000400840431C08D08D
S214009080044AD2F83C311B0C1B0480B20343C2F8DE
S2140090903C3170470040084010B504460846FFF7CC
S2140090A0EDFFA36A13B15B6903B11960002010BD20
S2140090B038B50D46044600F0D1FDAC4042F21071C2
S2140090C064094C436423B0FBF3F0B4FBF0F038BD06
S2140090D030B51F490B78032B34D01E4A49881368D5
S2140090E0B1F5E16F23F47F538CBF5A24C82423F0D4
S2140090F008038CBF50257825A0429ABF190A01F4B0
S2140091007F5143F6C8710B431E2813608CBF124A6A
S214009110124A012313609361114B1B789BB1A8423E
S21400912011D9104A4DF60173136093610E4BA0429D
S2140091308CBF4FF457404FF4504008221860986197
S21400914043F8702C30BD094B08221A60FAE700BFBE
S2140091503A000020E00F0021084108460841084474
S214009160380000200441084404410846944008445E
S214009170034B1A6802609B8883800020704700BFFC
S2140091803A000020084B094AD3F88831DB4303F441
S214009190FE1343F40053B3FA83F3C3F11303C3EB94
S2140091A043131370704700BF00400E40400000207D
S2140091B0044B00281B780CBF042000201844C0B2C3
S2140091C0704700BF40000020F8B50446C820FFF7EF
S2140091D07FFF414B414A1E78032E03D1FF241470B3
S2140091E02046F8BD3E4B19683E4B012E03EA0103AC
S2140091F013D1072C28BF0724012C3B4938BF012474
S214009200042043EA04630860A4B23549E4B20B6064
S21400921020461470FFF75CFFE2E743F47F5747F001
S2140092200807002E47D1042C95BF30460120334650
S2140092300423E41A2D4B1B78E4B2A34228BF23462E
S21400924003EB80040BB1013BDBB21F25B3FBF5F546
S214009250E9B2C5EB451501F1010C5B1B4FF0FF3180
S214009260234D01FA0CF11B06C94303F180732D78D8
S214009270C9B23B4343EA81333DB31E4D1E4FB1FA9C
S21400928081F1C1F11F01022E0CBF2E463E464D1C39
S2140092901BD0715C94B14D1EEDB2FD2D10D80906A1
S2140092A041F00401154DC5F858114FF4800150B136
S2140092B013480160A9E700200346BAE71149F1E721
S2140092C04FF07F41EEE71048F3E7002C0D4918BF3A
S2140092D04FF07F41E6E700BF3A000020390000204B
S2140092E0E00F00213F00C0E0584108444000002045
S2140092F09A1B0020B083E00FB883E00F00400840C0
S214009300084108460400000B0841084408B500F070
S21400931077FE0D4A68B1D2F8003123F47F115B085E
S21400932003F4FE130B43C2F800314FF00073D36111
S21400933008BDD2F8183123F47F115B0803F4FE133E
S2140093400B43C2F81831F0E70040084070470000B1
S21400935008B500F055FE4FF4001330B1044A136010
S214009360044B4FF000621A6008BD034AF7E700BFDF
S214009370004108442040084418410844014B18683E
S214009380704700BF9C1B002070B505460E46C0B255
S21400939001F00F01FFF78CFEC6F303110446C5F378
S2140093A00720FFF785FEC6F303210444C5F30740F4
S2140093B0FFF77EFE204470BD314B324A1B6803F433
S2140093C0E07370B5002914BF0E460126B3F5C07FC2
S2140093D02D4B16600CBF012200221A704BD090F85D
S2140093E06430022B3ED1294B1B78002B14BFC824B7
S2140093F096240F212046FFF75BFEB6FA86F3B0FAF6
S21400940080F29B1A002BC4BFC3F10F05D840204B37
S214009410D8BF0F2586424FEA0440D86603F1806322
S21400942003F1680340F6FF7238BF05F1FF351A6096
S21400943003F1007329021960FFF7A6FF154EB080EE
S21400944000F00CFCAC404FF4FA735C4341F66A0340
S214009450B0FBF3F0104BB4FBF0F40A2044431C605E
S214009460B08870BD012B08D0084B1B78002B14BFAA
S214009470F024B424BDE70024BBE73224B9E700BFDC
S21400948018600840F01B0020981B00209A1B002044
S214009490006008403A0000209C1B0020FF2807D0F0
S2140094A0030103F4F87300F007001843064B9860B6
S2140094B0FF2907D00B0103F4F87301F007011943E5
S2140094C0014B5960704700BFE00F002108B500F05F
S2140094D087FD092810D8094B01281B5C05D1084BCD
S2140094E01B78012B14BF0423442303F00F01180933
S2140094F0BDE80840FFF7D2BFFA23F6E788C70000AA
S2140095003A00002070B5054600F0A0FB3D4B3E4CEF
S2140095100022C3E900229A602A783C4B022AD3F83C
S214009520883131D113F4001F3DD12B682360AB88FE
S214009530A3800020FFF748FE324B22781B68022AE1
S21400954023F0804323F0170334D1314A4FF4EE4121
S214009550116002F100724FF48A41116043F08043BB
S214009560012143F0200342F8041C264A0020136021
S214009570FFF72AFE274B03221A60FFF7A7FF264BAA
S21400958001221A70002014E0012A02D113F4400FC1
S214009590CAE742B9214A526AD24302F0010203F4F2
S2140095A080031343C0E7032323701D4BFF221A706A
S2140095B0012070BD012A1B4E1B4D1C4C1C481D492A
S2140095C04FF007020ED1326003262E60226006227C
S2140095D00260194A0A60194A43F003034FF44041F7
S2140095E01160C2E7326004262E6022600522026007
S2140095F043F08043C0220A6043F01403104A8121DE
S214009600EEE700BFE00F00213A00002000400E40C9
S2140096102441084458410844991B0020B081E00FBB
S2140096203900002000410844004108460C41084427
S2140096300C41084608410844C10040000441084463
S214009640084108462DE9F04B2B4F2C4B3B6000F0B1
S21400965005FB4FF4FA634FF47A76DFF8B880B0FB78
S214009660F6F56B434FEA032B4FEA136C1BEB08002F
S2140096704FF000094FF00003214A4CEB090101F0BE
S214009680BFFFA0F580730446BB6218B92B21FEF716
S21400969023F9012406FB04F200275608B8194FEAFE
S2140096A005283B4648F1000101F0AAFF154B19605A
S2140096B0154B270606461860240A25B928462B218E
S2140096C0FEF70AF901254FF47A73A7FB037803FB2C
S2140096D004886C0838194FF000032A4648F1000148
S2140096E001F08EFF094B1960094B1860024B013ED2
S2140096F01E63BDE8F08B00BF00500840001101005B
S21400970040420F00AC1B0020A81B0020A41B00201A
S214009710A01B002020A10700044B4FF08052C3F886
S21400972080211A60024B01225A60704700E100E077
S21400973000500840054B0201134401221A604FF402
S214009740807303FA00F0024B586670477450084462
S21400975000500840024B0001185800F00100704706
S2140097607450084001F078710001024B41F003018B
S2140097701950704774500840014B024ADA66704729
S214009780005008400000010108B5222000F0AEF9A4
S214009790024B4FF480225A6008BD00BF00500840BC
S2140097A0064B10B51968064B1C684FF000420023A4
S2140097B0E0FB042301FB003010BD00BFA41B00200B
S2140097C0A01B0020014B9869FFF7EABF0050084035
S2140097D0FFF7E6BF084B1A6B084B1B6830B54FF017
S2140097E000440025E0FB0345054B1B6803FB0050C7
S2140097F0904228BF104630BD00500840A81B0020ED
S214009800AC1B00202DE9F843154607460E46FBF72D
S214009810AFFB80463846FFF78DFF022D04D1404649
S214009820FBF7DAFB012011E0394CD4F818904846D3
S214009830FFF7B6FF012D04BF01363618801BB0F1C6
S214009840804F05D24046FBF7C7FB0020BDE8F883F3
S2140098502F4A246F2F48D26E07F1090324F0E00444
S21400986010401902E4041B0622F0E00243F48033A1
S21400987041F00101E40CD2048C420CBF0424002405
S214009880D20C984208BF44F00204914208BF44F04C
S214009890010414F0010118BF1F4B304618BF1E60AC
S2140098A0FFF798FF1A4B03EB07121126C2F8800049
S2140098B0FA1D03EB0212A0EB090056609A69DE6DF2
